:020000040800F2
:1000000000100020E9550008255500082755000874
:1000100000000000000000000000000000000000E0
:100020000000000000000000000000003355000840
:100030000000000000000000355500083955000898
:1000400039560008000000003956000839560008EB
:100050003956000839560008395600083956000844
:10006000000000003956000869550008395600089C
:1000700039560008395600083956000800000000BB
:100080003956000800000000000000003956000842
:100090000000000039560008395600085155000884
:1000A00000000000395600080000000079550008E3
:1000B0000000000000000000000000000000000040
:1000C00010B5064C2378002B07D1054B002B02D02E
:1000D000044800E000BF0123237010BD2000002071
:1000E0000000000094560008044B10B5002B03D00C
:1000F0000349044800E000BF10BDC04600000000F6
:100100002400002094560008002243088B4274D338
:1001100003098B425FD3030A8B4244D3030B8B4208
:1001200028D3030C8B420DD3FF22090212BA030C11
:100130008B4202D31212090265D0030B8B4219D3F2
:1001400000E0090AC30B8B4201D3CB03C01A524112
:10015000830B8B4201D38B03C01A5241430B8B425A
:1001600001D34B03C01A5241030B8B4201D30B0343
:10017000C01A5241C30A8B4201D3CB02C01A52416A
:10018000830A8B4201D38B02C01A5241430A8B422D
:1001900001D34B02C01A5241030A8B4201D30B0216
:1001A000C01A5241CDD2C3098B4201D3CB01C01A30
:1001B000524183098B4201D38B01C01A524143093A
:1001C0008B4201D34B01C01A524103098B4201D328
:1001D0000B01C01A5241C3088B4201D3CB00C01A95
:1001E000524183088B4201D38B00C01A524143080D
:1001F0008B4201D34B00C01A5241411A00D2014632
:10020000524110467047FFE701B5002000F006F8A4
:1002100002BDC0460029F7D076E770477047C04658
:1002200010B5040001F0CAFFFA218900FFF76CFF46
:1002300000F09CFA012000222100404200F05AFA0E
:10024000002010BD10B5064A136810210B4313603F
:100250000020FFF7E5FF05F089F8002010BDC0463B
:1002600000200240024A1368013313607047C04601
:100270003C000020014B18687047C0463C0000203D
:1002800030B583B00190FFF7F5FF0500019C631CBA
:100290005A1E9341E418FFF7EDFF401BA042FAD32A
:1002A00003B030BD70B582B0040000230193036831
:1002B000996803220A40012A2DD09968204A1142E8
:1002C00031D19A6801210A439A601E4B18681E4971
:1002D000FFF71AFF0190019B002B05D0019B013B0A
:1002E0000193019B002BF9D1FFF7C4FF0500012604
:1002F00023681B681E4221D1FFF7BCFF401B022868
:10030000F6D9636C102213436364A36C0F3A134352
:10031000A364012010E01A680020D2070CD4DA6828
:10032000120409D4C9E7636C102213436364A36CFD
:100330000F3A1343A364012002B070BD0020FBE715
:10034000170000801800002040420F0070B5041E06
:1003500000D1A2E0436C002B73D0636CDB0600D5A8
:1003600095E023689A68520700D590E0626C4C498A
:100370000A400631FF310A436264996803220A4049
:10038000012A64D0DA6818218A43A1680A43DA6036
:10039000226813699B009B0861680B431361226804
:1003A000D36840490B40D360216AA3699B03E2698B
:1003B000D2031343E26813434A031343226B5200F0
:1003C0001343626B013A501E8241120313432269A8
:1003D000023A5042424192001343626A012A3DD0E0
:1003E000A26AC221FF318A4202D0E16A0A43134362
:1003F0002168CA681A43CA60A26B802149058A42F3
:1004000002D0013A062A0AD821684A6907208243A5
:100410004A6121684D69A26B02402A434A61226801
:10042000D26821490A409A4227D0636C1222934332
:10043000023A13436364A36C0F3A1343A36401208D
:100440002AE083644022835404F0BAFF85E71A68E7
:10045000D207A4D4DA681204A1D493E7002903D107
:10046000802252021343BBE7626C20210A4362647C
:10047000A26C1F390A43A264B2E70023A364636C31
:1004800003229343023A13436364002004E0636C45
:10049000102213436364012070BD0120FCE7C046B5
:1004A000FDFEFFFF1902FEFFE7FF3F8310B50400CA
:1004B00003689B685B0723D44023C35C012B21D0D6
:1004C00040230122C254C369012B14D1626C0E4B2C
:1004D0001A4080235B00134363640023A36440221B
:1004E000A3542368243A1A602268936804210B43BA
:1004F0009360002010BDFFF7D5FE0028FAD1E5E794
:100500000220F7E70220F5E7FEF0FFFFF8B506004E
:100510000C004569082D04D00368DB680C25DB0757
:1005200018D4FFF7A7FE0700326813681D421AD1DE
:10053000631CFAD0002C04D0FFF79CFEC01BA04225
:10054000F2D9736C04221343736440230022F254E3
:1005500003202DE0436C20221343436440230022F8
:10056000C254012024E0716C80239B000B43736410
:10057000D168C0231B01194213D1336A002B10D15B
:1005800013681B070DD593685B0712D453680C21C1
:100590008B435360736C0B4A13400432FF32134396
:1005A0007364B3690020002B02D133680C221A60F7
:1005B000F8BD736C202213437364B36C1F3A13436A
:1005C000B364EEE7FEFEFFFF0368186C704700009F
:1005D00030B583B00400002301934033C35C012B8A
:1005E00000D17BE040230122C254026893685B077C
:1005F00068D43B4B486898424BD0906A0D68012301
:10060000AB4003439362A36B80225205934213D005
:10061000013B062B10D922685069072303408868E4
:10062000984209D053690720834353612268556972
:100630008B6803402B4353610B681A00103A00206B
:10064000012A44D8274A1268103B581E83415B4256
:100650009B0D9B0580200004844663441343214A7C
:1006600013600B680020102B31D11F4B18681F49F5
:10067000FFF74AFD83001B185B000193019B002BD1
:100680002AD0019B013B0193019B002BF9D1002053
:100690001DE0936A0D680120A840834393620B68B4
:1006A0001A00103A0020012A11D80E4A1268103B95
:1006B000591E8B419B050E498C4663441340094AE1
:1006C000136004E0436C2022134343640120402361
:1006D0000022E25403B030BD0020F8E70220F9E721
:1006E00001100000082701401800002040420F00C0
:1006F000FFFF7FFF70B5002814DB8408A400144BB3
:100700009C466444C026B600A55903220240D2008C
:10071000FF2318009040854389010B4093402B43F1
:10072000A35170BD0F230340083B9B089B00094A5F
:1007300094466344DC6903221040C000FC3215007B
:100740008540AC4389010A4082402243DA61E8E7F0
:1007500000E100E000ED00E01F2318401E3B834055
:10076000014A13607047C04600E100E00138802371
:100770005B0498420FD2094A50600948036A1B0281
:100780001B0AC02109060B43036200239360073351
:100790001360002070470120FCE7C04610E000E035
:1007A00000ED00E0042805D0054A136804218B43BE
:1007B00013607047024A136804210B431360F8E783
:1007C00010E000E0704710B5FFF7FCFF10BD00001F
:1007D00070B5041E2CD021250223435501680A68F8
:1007E000144B1A40436880680343E0680343206960
:1007F000034360690343A0690343E0690343134370
:100800000B6020680C4B9C4660441421FFF77CFC75
:1008100080002064094BE3630023A362E362236347
:100820006363A363012262551F32A354002070BD8D
:100830000120FCE70FC0FFFFF8FFFDBF00000240F2
:1008400070B52024045D012C41D0202401250555DC
:100850000134045D012C04D020230022C254022064
:1008600070BD203401350555002484630668356861
:100870000134A5433560C56B066CB4406C600468F8
:1008800063604368102B12D0036899600368DA60D4
:10089000C36A002B10D0026813680E210B4313604B
:1008A0000268136801210B4313600020D8E7036836
:1008B0009A600368D960EBE7026813680A210B436A
:1008C00013600268136806398B431360E8E702205F
:1008D000C6E710B52123C35C022B03D00423836336
:1008E000012010BD026813680E218B43136001685C
:1008F0000A6801239A430A60C26B016C1C008C4099
:100900005460212283541F330022C254436B002BB6
:1009100002D098470020E4E70020E2E770B5C36BFF
:100920001A6804682568016C04238B401A4212D0AF
:100930006B0710D523689B0603D4236804229343D6
:100940002360C26B016C04238B405360C36A002B8D
:1009500000D0984770BD02238B401A4218D0AB07D5
:1009600016D523689B0606D423680A229343236086
:100970002123093AC254C26B016C02238B4053609D
:1009800020230022C254836A002BE3D09847E1E77A
:1009900008238B401A42DDD02D07DBD523680E22B9
:1009A00093432360C26B0123016C1C008C40546094
:1009B0008363212283541F330022C254036B002B14
:1009C000C8D09847C6E700000D4BDA6810210B002D
:1009D0001340114205D00B4AD3690E390B43D36142
:1009E0001023074AD268520706D50649CA69012072
:1009F0000243CA6104221343014AD3607047C046D0
:100A00000020024040000020064B1B691B0606D553
:100A1000044B054A5A60054A5A600020704701207D
:100A2000FCE7C0460020024023016745AB89EFCDBB
:100A3000034A136980210B43136100207047C046AD
:100A400000200240F8B50400FFF714FC0700134E25
:100A50000125F3681D420AD0631CFAD0002C1BD07C
:100A6000FFF708FCC01BA042F3D903200FE00B4B9B
:100A7000DB689B0602D5094B2022DA60074BDB6856
:100A8000DB0605D4054BDB6800205B0700D4F8BD0E
:100A9000FFF79AFF0120FAE70320F8E70020024061
:100AA000F0B5DE4657464E464546E0B583B00400F5
:100AB0000E0001929946294B1B7E012B4BD0274BF0
:100AC00001221A762648FFF7BDFF002839D1012CF4
:100AD0000ED0023C631E9C416300984602239C4654
:100AE000E04400251D4B9B4600239A461D4C21E007
:100AF00001239846F5E72022D21A494691400A0080
:100B00000199D9400B0013439BB25A465146D1611B
:100B1000226901273A43226133801148FFF792FF8F
:100B20002369BB43236100280BD101350236EBB2A8
:100B3000984506D92B011A00203ADCD44B46D34005
:100B4000E2E7064B00221A7603B0F0BCBB46B24681
:100B5000A946A046F0BD0220F6E7C04640000020AE
:100B600050C3000000200240064B0022DA61064B11
:100B70001A6904210A431A611A693C310A431A614D
:100B80007047C0464000002000200240064B002273
:100B9000DA61064B1A6902210A431A6158611A691F
:100BA0003E310A431A617047400000200020024095
:100BB000F8B5CE46474680B505008846294B1B7ED2
:100BC000012B4DD0274B01221A760368012B29D027
:100BD0002548FFF737FF03000120002B29D1013BF7
:100BE000424613606C68AB689B021B199C4235D26D
:100BF0001D4B99461D4E02272000FFF7C7FF4846B0
:100C0000FFF720FF3369BB433361002823D18023E2
:100C1000DB009C466444AB689B026A689B18A34255
:100C2000EAD806E01048FFF70DFF03000120002B73
:100C300006D00C4B00221A76C0BCB946B046F8BDAF
:100C4000FFF792FF0848FFF7FDFE084A13690421E9
:100C50008B431361EDE743461C60EAE70120E8E7B8
:100C60000220E9E74000002050C3000000200240BD
:100C7000F0B5DE4657464E464546E0B585B00A68B3
:100C8000002A00D1C3E000230124A4460234A24676
:100C9000624CA346624E3FE0DA089200821801924D
:100CA000156AA84607251D40AD000F27AF40B9467D
:100CB00047464A469743B8460A691700AF403D0089
:100CC00042461543019A156232E000224746BA4077
:100CD0002A43A2603268009CE4434D68ED0300D5CE
:100CE00089E02240326072684D68AD0300D585E02E
:100CF00022407260B2684D68ED0200D581E022406A
:100D0000B260F2684D68AD027ED42240F2600133D9
:100D10000A681400DC407AD064469C4017002740E3
:100D200000972242F3D04A681025AA43022AB3D082
:100D3000026891465D005246AA40D743B8464F46E6
:100D40009743B9464A6857463A40AA404F463A4305
:100D500002604A681027BA43013A012A10D8826813
:100D600047461740CA68AA403A4382604268A24395
:100D700014004A68120967463A409A40224342608A
:100D8000C468424614408A68AA402243C2604A6846
:100D9000802464052242BAD05A46926964462243AE
:100DA0005C46A261A269644622400392039A9C08B1
:100DB000A4001C4A90464444A56852461A4092003A
:100DC00090460F224746BA4095439022D205904262
:100DD00000D17AE7144A904209D0144A904208D0D0
:100DE000134A8218571EBA41520003326EE701229D
:100DF0006CE702226AE7009D2A4373E7009D2A43BD
:100E000077E7009D2A437BE7009C22437EE705B0FD
:100E1000F0BCBB46B246A946A046F0BD0010024059
:100E200000040140000001400004004800080048A0
:100E300000F4FFB700690840431E9841C0B27047F4
:100E4000002A01D0816170478162FCE74369594003
:100E500041617047026893699B0701D50023936243
:100E600003689A69D20703D49A6901210A439A61F7
:100E70007047000030B504686068064D28401204D1
:100E8000039D2B431A438905890D0A43024362607F
:100E900030BDC046009800FC436B184A934215D001
:100EA000174A934212D04A07D217B8231340CA07F1
:100EB00001D5F22213438A0701D5F42213431222EB
:100EC0000A40122A0ED10E3213430BE04A07D21702
:100ED000B823134011220A40112A09D012220A40D5
:100EE000122A08D001680A6813430B60002070477B
:100EF0007F321343F2E74E321343F3E71919000828
:100F00005916000810B50023CA070AD54133C25C40
:100F1000193B1A40283A531E9A415242B0231340BB
:100F200042338A0707D54122825C28242240282A9E
:100F300013D0F42213434A0701D5B82213431122D8
:100F40000A40112A0CD012220A40122A0BD0016842
:100F50000A689A430A60002010BD1C321343EAE776
:100F60007F321343EFE74E321343F0E710B5041E10
:100F700059D04123C35C002B43D041232422E254A7
:100F80002268136801218B43136022686368274934
:100F90000B4013612268936825490B409360E36816
:100FA000012B34D02268A16884231B020B43936079
:100FB000E368022B32D0226851681E4B0B4353600A
:100FC0002268D3681A490B40D3602168236962699B
:100FD0001343A26912021343CB602268E369216ABA
:100FE0000B4313602268136801210B431360002335
:100FF000636441221F31A15423630132A3540020B2
:1010000010BD40330022C25404F0FEF9B5E7226857
:10101000A16880231B020B439360C9E723688022E9
:1010200012015A60C7E70120EAE7C046FFFFFFF060
:10103000FF7FFFFF0080000230B583B00400412035
:10104000205C202836D120688069000434D44020F8
:10105000205C012832D04020012525540130203564
:1010600025540130113D255400206064626263857F
:10107000134BE362134B6363638D9BB2FF2B04D866
:10108000628D92B280239B0402E0FF2280235B04E6
:101090002285D2B28020800100902000FFF7EAFE76
:1010A00040230022E25401212000FFF7F5FE00203A
:1010B00003B030BD0220FBE70220F9E70220F7E78A
:1010C0000000FFFFA9170008F8B54123C35C202BDF
:1010D00021D12033C35C012B1FD0402401230355B1
:1010E00040332225C5540133023DC55400254564D3
:1010F000066873680A4F3B40736041624285438DC6
:101100000385084BC362084B436305550621FFF76F
:10111000C3FE0020F8BD0220FCE70220FAE7C0462B
:10112000FF7FFFFF0000FFFF6D14000810B503688C
:1011300099691A68436B002B00D0984710BD70B5B1
:10114000040042230022C254013BC35C212B0FD078
:1011500041232022C2542F3B036300254563022113
:10116000FFF7D0FE4023E554200003F017FD70BDCB
:1011700020332032C254303B0363002545630121F4
:10118000FFF7C0FE4023E554200003F0FFFCEEE72C
:101190007047704710B5040042230022C254013B3F
:1011A000C35C292B04D04123C35C2A2B0FD010BD74
:1011B00018332832C254203B03630121FFF7A2FEFB
:1011C00040230022E2542000FFF7E2FFEFE717334D
:1011D0002822C2541F3B03630221FFF793FE4023E2
:1011E0000022E2542000FFF7D4FFE0E77047704789
:1011F00010B50400164BC362002303634122202074
:10120000A0540132A3546363490712D523685A6A74
:10121000636A591C61621A70238D002B09D0013B4F
:101220002385638D013B9BB26385636C042213436A
:10123000636407212000FFF765FE23681022DA614E
:1012400040230022E2542000FFF7D1FF10BDC0462A
:101250000000FFFF704770477047000010B50400A2
:10126000002342228354364AC2624385436C0B43B7
:1012700043644123C35C282B07D04123C35C292B43
:1012800003D04123C35C2A2B1CD103212000FFF78C
:1012900039FE41232822E25400232363294B636350
:1012A00023681A6852041AD41A6812042AD44123F3
:1012B000E35C602B39D040230022E254200003F08D
:1012C00075FC10BD0721FFF71DFE4123E35C602B79
:1012D00002D041232022E25400232363DFE71A686F
:1012E00019490A401A60A36B184A5A634023002226
:1012F000E254A06BFFF7EDFA0028E2D0A06B436B3D
:101300009847DEE71A6812490A401A60E36B0F4AF1
:101310005A6340230022E254E06BFFF7DAFA002818
:10132000CFD0E06B436B9847CBE71F3B2022E254C2
:10133000013B0022E2542000FFF78EFFC1E7C046C8
:101340000000FFFF6D140008FFBFFFFF671A0008D1
:10135000FF7FFFFF70B504000D0003682022DA61F3
:101360000368183ADA610721FFF7CCFD226851685B
:1013700080231B020B4353602268536839490B409A
:1013800053602000FFF766FD226813685B0402D4F7
:1013900013681B0408D54123E35C212B3AD0E36B8F
:1013A0001B685B689BB26385638D9BB2002B03D087
:1013B000636C04210B4363646B0711D5526A636A43
:1013C000591C61621A70238D002B09D0013B2385C3
:1013D000638D013B9BB26385636C0422134363649A
:1013E000002323634222A3546363636C002B16D152
:1013F000E26A1D4B9A421FD14123E35C222B26D087
:1014000041232022E254013B0022E2542000FFF756
:10141000BFFE1BE0A36B1B685B689BB2C3E7616CFC
:101420002000FFF71BFF4123E35C282B0ED129008E
:101430002000FFF7DDFE09E0E36241232022E254B1
:10144000013B0022E2542000FFF7D1FE70BD1F33A4
:101450002022E254013B0022E2542000FFF799FED3
:10146000F4E7C04600E800FE0000FFFFF8B5CE46F6
:10147000474680B504000D0016004023C35C012BD5
:1014800000D1E5E040230122C254CB0640D5F3064B
:101490003ED5438D9BB2002B26D1C26A80239B048C
:1014A0009A4202D0C26A9A4203D14123E35C282BBC
:1014B0000BD0E26A674B9A4203D04123E35C292BAD
:1014C00008D023681022DA6115E029002000FFF718
:1014D0008FFE10E023681022DA612000FFF7BAFCCB
:1014E0002000FFF757FE06E003681022DA61436C24
:1014F0000C3A13434364AB0602D5B60600D5A2E00E
:1015000040230022E2540020C0BCB946B046F8BDDA
:101510006B071ED573071CD5638D9BB2002B0CD0B7
:1015200023685A6A636A591C61621A70238D013BF1
:101530002385638D013B9BB26385638D9BB2002B3A
:10154000D9D1E26A434B9A42D5D02000FFF722FE60
:10155000D1E72B0701D5330715D4AB07CBD5B3079C
:10156000C9D5638D9BB2002B60D0636A5A1C62623E
:1015700022681B789362638D013B9BB26385238D48
:10158000013B2385B7E74123E35C28221340282B46
:1015900006D023680822DA6140230022E254AAE739
:1015A00021688F69FF03FF0F8B691B0CD6321A402D
:1015B00091468B68CA689046E268022A29D19B0549
:1015C0009A0D5B0F4846584003000620184211D17F
:1015D000A36C0133A364A36C022B00D08BE7002320
:1015E000A3640230C8614021635439002000FFF732
:1015F000FDFD80E704212000FFF784FC402300224A
:10160000E254FE3243461A4039002000FFF7EEFD57
:1016100071E704212000FFF775FC40230022E2540B
:101620004A4639002000FFF7E1FD64E7E26A8023C3
:101630005B049A4203D0E36A002B00D05BE72000F2
:10164000FFF7A8FD57E729002000FFF783FE57E7C3
:10165000022059E70000FFFF10B504004023C35CDF
:10166000012B35D040230120E054CB061BD5D306F7
:1016700019D54123E35C212B08D0E36B1B685B6821
:10168000002B08D123681022DA6118E0A36B1B68D5
:101690005B68002BF6D023681022DA61636C0C3A89
:1016A000134363640BE00B0705D5130703D52368C9
:1016B0000822DA6103E08B0601D5920604D44023A8
:1016C0000022E254002010BD2000FFF743FEF6E7A1
:1016D0000220F8E710B5040003682022DA610268EE
:1016E00053682F48034053600023236363632D4BEB
:1016F000E362C90606D523681022DA61636C0C3AEE
:10170000134363642000FFF7A5FB03212000FFF7CC
:10171000F9FB636C002B1BD14133E35C602B17D0CA
:101720004123E35C212B18D04123E35C222B13D10E
:101730001F332022E2540133E35C402B26D00023E8
:101740004222A354023AA354200003F027FA03E0F4
:10175000616C2000FFF782FD10BD20332022E2548F
:101760000133E35C402B08D000234222A354023A09
:10177000A354200003F00AFAEEE700232232A35418
:10178000023AA3542000FFF765FDE5E7002322326B
:10179000A354023AA3542000FFF75DFDDCE7C046E6
:1017A00000E800FE0000FFFF70B582B004000D00ED
:1017B00016004023C35C012B00D1A8E04023012286
:1017C000C254CB0601D5F3061BD46B0723D5730790
:1017D00021D523685A6A636A591C61621A70238D85
:1017E000013B2385638D013B9BB26385AB0602D52C
:1017F000B60600D586E040230022E254002002B065
:1018000070BD03680F32DA61436C0C3A13434364D2
:10181000FFF720FBEAE7AB070FD5B3070DD5636AE7
:101820005A1C626222681B789362238D013B2385D8
:10183000638D013B9BB26385D8E72B0640D57306C9
:10184000D4D5238D002B2ED1638D9BB2002B2AD0B3
:10185000236859688905890D638D9BB2FF2B0ED8CB
:10186000628D92B22285E06A2A4B984212D0E36AD6
:10187000D2B2002000902000FFF7FCFAB6E7FF2369
:1018800023857F3B002200925B04FF322000FFF79C
:10189000F1FAABE78023D2B2002000909B04200035
:1018A000FFF7E8FAA2E723685B689B0103D42000F6
:1018B000FFF745FC9AE740212000FFF7CFFC95E7B2
:1018C0006B0600D492E7730600D48FE7638D9BB25A
:1018D000002B12D1226853689B0100D586E7E16A8C
:1018E0000C4B994205D151688023DB010B435360B7
:1018F0007CE72000FFF723FC78E740212000FFF77A
:10190000ADFC73E729002000FFF7E4FE73E7022037
:1019100075E7C0460000FFFF10B582B00400402309
:10192000C35C012B63D040230120E054CB0601D5DA
:10193000D3062FD40B064CD553064AD5226813681C
:1019400040218B431360638D9BB2002B3CD02368F6
:1019500059688905890D638D9BB2FF2B29D8628D4B
:1019600092B280239B042285D2B2002000902000F6
:10197000FFF780FA638D228D9B1A9BB2638541230A
:10198000E35C222B19D0226811688023DB010B4312
:10199000136022E023681022DA61636C0C3A13436F
:1019A000636412212000FFF777FA2000FFF752FA54
:1019B00013E0FF2280235B04D5E7226811688023AF
:1019C0001B020B43136008E040212000FFF746FC98
:1019D00003E08B0601D5920605D440230022E25491
:1019E000002002B010BD2000FFF774FEF5E70220D2
:1019F000F7E710B5026893691168DC050DD50C0690
:101A00002AD5416C01242143416480214900D161E0
:101A10005A0506D49B050ED415E05A051ED50906B5
:101A200011D5426C08210A43426402688021C90032
:101A3000D1619B0507D5436C0222134343640368BD
:101A4000FF32FF32DA61436C0B221A4200D110BD23
:101A5000416CFFF703FCFAE75A05F4D49B05F2D575
:101A60000906F0D5E7E710B5406A0268516880239F
:101A70001B020B435360826B00235363C26B53639F
:101A80004133C35C602B02D003F090F810BD1F3BC4
:101A90002022C254FFF7E0FBF8E7406C70470000DB
:101AA000F0B54123C35C202B20D12033C35C012B34
:101AB0001ED04024012202554125242343550668A7
:101AC000336893433360066833680A4F3B403360A2
:101AD000066833680B43336001680B6813430B607F
:101AE00020234355002303550020F0BD0220FCE7CE
:101AF0000220FAE7FFEFFFFFF0B54123C35C202B84
:101B00001ED12033C35C012B1CD04024012202557E
:101B100041252423435506683368934333600668A0
:101B20003368094F3B4009021943316001680B6873
:101B300013430B6020234355002303550020F0BDC1
:101B40000220FCE70220FAE7FFF0FFFFF0B5CE46E7
:101B5000474680B583B004000368DB0726D5B94B40
:101B60005A680C231340042B18D0B64B5A680C2328
:101B70001340082B0ED06368012B3ED0002B55D1AB
:101B8000B04B1A68B0490A401A601A68AF490A4057
:101B90001A6038E0AB4B5B68DB03ECD5A94B1B68E4
:101BA0009B0303D56368002B00D10CE223689B07DD
:101BB00078D5A44B5B680C221A4263D0A14B5A68BB
:101BC0000C231340082B59D0E368002B00D190E080
:101BD0009C4A136801210B431360FEF74BFB050081
:101BE000984F02263B681E4200D079E0FEF742FB88
:101BF000401B0228F6D903206DE0924A1168802329
:101C00005B020B4313606368002B27D0FEF732FBA7
:101C100005008C4F8026B6023B683342C6D1FEF7E2
:101C200029FB401B6428F7D9032054E0052B09D079
:101C3000844B1A6884490A401A601A6883490A402A
:101C40001A60E0E77F4B19688022D2020A431A60CB
:101C50001968802252020A431A60D4E7FEF70AFB91
:101C60000500784F8026B6023B6833429ED0FEF7CF
:101C700001FB401B6428F7D903202CE0714B5B6803
:101C8000DB03A1D46F4B1B689B0703D5E3680120DE
:101C9000012B20D16B490A682369DB00F8208243BD
:101CA00013430B6023681B074BD5E369002B34D02B
:101CB000644A536A01210B435362FEF7DBFA0500C5
:101CC000604F02267B6A1E423BD1FEF7D3FA401BCF
:101CD0000228F7D9032003B0C0BCB946B046F0BD16
:101CE00058490A682369DB00F820824313430B60DC
:101CF000D8E7544A136801218B431360FEF7BAFA00
:101D00000500504F02263B681E42CBD0FEF7B2FAC8
:101D1000401B0228F7D90320DDE74A4A536A012114
:101D20008B435362FEF7A6FA0500464F02267B6AF4
:101D30001E4206D0FEF79EFA401B0228F7D9032068
:101D4000C9E723685B0700D489E03E4BDB690022CA
:101D50009146DB000BD43B4BDA69802149050A43ED
:101D6000DA61DB690B400193019B01239946384BF3
:101D70001B68DB050ED5A368012B21D0002B39D1C0
:101D8000304B1A6A01218A431A621A6A03318A4364
:101D90001A621AE02E4A116880235B000B4313601D
:101DA000FEF768FA06002A4D80277F002B683B4229
:101DB000E1D1FEF75FFA801B6428F7D903208AE798
:101DC000204A136A01210B431362A368002B27D01A
:101DD000FEF750FA06001B4B984602271D4D43465E
:101DE0001B6A1F4238D1FEF745FA801BA842F6D97C
:101DF000032070E7052B09D0124B1A6A01218A4390
:101E00001A621A6A03318A431A62DEE70D4B1A6AB4
:101E100004210A431A621A6A03390A431A62D4E790
:101E2000FEF728FA0600074B98460227094D43465D
:101E30001B6A1F4210D0FEF71DFA801BA842F6D97C
:101E4000032048E700100240FFFFFEFFFFFFFBFFFB
:101E500000700040881300004B46012B37D02368E8
:101E6000DB0610D56369012B37D0053356D1584AAC
:101E7000536B04218B435363516BA369DB00F82040
:101E800081430B435363236A0020002B00D122E7D8
:101E90004F4A51680C220A40082A00D195E0022BD3
:101EA00054D04B4A13684B490B401360FEF7E2F9DC
:101EB0000400474E8025AD0433682B4200D180E0FA
:101EC000FEF7D8F9001B0228F6D9032003E7404AA1
:101ED000D36941490B40D361C1E73D4B5A6B0421A3
:101EE0000A435A635A6B03390A435A63FEF7C2F92D
:101EF0000500374F02267B6B1E4206D1FEF7BAF96A
:101F0000401B0228F7D90320E5E631494A6BA36953
:101F1000DB00F820824313434B63B4E72C4B5A6B2E
:101F200004210A435A635A6B03398A435A63FEF702
:101F3000A1F90500264F02267B6B1E42A3D0FEF7B7
:101F400099F9401B0228F7D90320C4E6204A1368F8
:101F500020490B401360FEF78DF905001C4F8026C9
:101F6000B6043B68334206D0FEF784F9401B0228D2
:101F7000F7D90320AFE6164BDA6A0F218A43E16AEC
:101F80000A43DA625968A26A606A02431348014050
:101F90000A435A601968802252040A431A60FEF705
:101FA00069F904000A4E8025AD0433682B4206D13E
:101FB000FEF760F9001B0228F7D903208BE600200A
:101FC00089E6002087E6012085E6012083E6C046F9
:101FD00000100240FFFFFFFEFFFFFFEFFFFFC2FF09
:101FE00030B589B004AA164B31CB31C21B681360DF
:101FF0006A46144B31CB31C21B681360124B5A68CE
:102000000C231340082B02D0104809B030BD9302B6
:102010001B0F04A9CC5C0C4BD96AD20308D50F2343
:102020000B406A46D15C0948FEF76EF86043ECE766
:102030006201121B93019B1ADB001B191802E4E7D3
:10204000AC560008C05600080010024000127A008A
:10205000F8B5CE46474680B504000D00514B1A68CE
:10206000012313408B420BD24E490B68012293434C
:102070002B430B600B681A400120AA4200D08AE073
:1020800023689B0706D5484A5368F0218B43A16813
:102090000B4353602368DB0755D56268012A24D0BF
:1020A000022A28D0404B1B689B0700D477E03E49AA
:1020B0004B680320834313434B60FEF7DBF80600B5
:1020C0006368012B1DD0022B2CD0374B98460C2770
:1020D000364B994643465B681F4234D0FEF7CAF838
:1020E000801B4845F6D9032055E02F4B1B689B0306
:1020F000DDD401204FE02C4B1B689B01D7D401207D
:1021000049E0294B98460C27284B994643465B6883
:102110003B40042B17D0FEF7ADF8801B4845F5D99E
:10212000032038E0204B98460C27204B9946434625
:102130005B683B40082B06D0FEF79CF8801B4845A7
:10214000F5D9032027E0174B1A6801231340AB424F
:1021500008D9144B1A6801218A431A601B680120B0
:10216000194218D123685B0706D50F4A53681049F6
:102170000B40E1680B435360FFF732FF0A4B5B688B
:102180000C490D4A1B061B0FD35CD8400860002089
:10219000FEF746F80020C0BCB946B046F8BD0120A5
:1021A000F9E7C046002002400010024088130000FA
:1021B000FFF8FFFF1800002020570008014B1868A7
:1021C0007047C04618000020044B5B68044A05496C
:1021D0005B055B0FCB5C1068D84070470010024075
:1021E0001800002018570008F0B5CE46474680B5C5
:1021F00083B004000368DB033AD5424BDB6900255A
:10220000DB000AD43F4BDA69802149050A43DA61D1
:10221000DB690B400193019B01353B4B1B68DB05E0
:1022200040D5384B1A6AC0239B00110019401A424E
:1022300015D06368C022920013408B420FD0314BFF
:102240001A6A324911401E6A8020400230431862E7
:10225000186A2F4E304018621962D2073AD4294AC0
:10226000136A2A490B4061680B431362012D44D065
:102270002368DB0706D5234A136B03218B43A16830
:102280000B431363236800209B0606D51D4A136B7E
:1022900010218B43E1680B43136303B0C0BCB94604
:1022A000B046F0BD184A116880235B000B431360F1
:1022B000FDF7E0FF0600144B984680277F00434659
:1022C0001B683B42ADD1FDF7D5FF801B6428F6D9D2
:1022D0000320E2E7FDF7CEFF06000A4B98460227EF
:1022E0000C4B994643461B6A1F42B8D1FDF7C2FF0B
:1022F000801B4845F6D90320CFE7D36906490B4038
:10230000D361B5E70010024000700040FFFCFFFF02
:10231000FFFFFEFF88130000FFFFFFEF0268136856
:1023200006490B401360026893682331FF318B43E9
:1023300093606A232022C2547047C046DFFEFFFF2D
:1023400010B56A23C35C202B44D1002944D0002A55
:1023500044D0836880246401A3421ED06824045DB5
:10236000012C3FD041655821425202314252002B8C
:1023700025D00023C3666A2222218154023A835465
:102380000268936821390B439360026811689023B7
:102390005B000B43136000201DE00369002B27D175
:1023A000CB071DD46823C35C012B1DD04165582386
:1023B000C2520233C2520233144AC252D9E70369ED
:1023C000002B03D15C33FF22C252D2E75C237F2271
:1023D000C252CEE7022010BD0120FCE70120FAE73F
:1023E0000120F8E70220F6E70220F4E70220F2E7F6
:1023F0006823C35C012BF9D041655823C2520233D4
:10240000C2520233FF22C252B3E7C046FF010000AE
:1024100070B5040013006922825C202A3CD1002997
:102420003CD0002B3CD080225201806890422CD0BE
:102430006822A25C012A35D068260122A255E164F7
:102440004F32A3520232A3520025E56617322121F2
:10245000A154226E14499162226E1449D162226EF7
:1024600013491163226E556322682832E16C206E95
:10247000FEF7E6F9236840221A62A55522689368A0
:1024800080210B439360002007E02269002ACFD10E
:10249000CA07CDD5012000E0022070BD0120FCE775
:1024A0000120FAE70220F8E7B5240008E724000835
:1024B000F124000810B50300406A1B681B689B06E6
:1024C0000DD452230022C2520268936880218B43AC
:1024D00093600268136840390B43136010BD02F02B
:1024E0000BFEFBE7704710B5406AFFF7FBFF10BD1E
:1024F00010B5446A6923E35C212B0BD06A23E35CAB
:10250000222B16D0E36E10221343E366200002F064
:1025100031FB10BD226893681B06EFD552230021C2
:10252000E1521368C0318B43136069232022E254C7
:10253000E4E723689B685B06E4D55A230022E25255
:102540002000FFF7EBFEDDE710B5406A00235A22BA
:102550008352083A835202F00DFB10BD70B504009F
:1025600001680A6883680069034360690343E0699E
:1025700003435648024013430B6022685368544992
:102580000B40E1680B43536021688A68A369206AA5
:1025900003435048024013438B604F4B1A6B032395
:1025A0001340022B5AD047D8002B14D0012B3CD11A
:1025B00080231B02E2699A4200D17BE0FFF710FD05
:1025C000616824684B081818FDF79EFD0004000C94
:1025D000E06000256AE080231B02E2699A4250D045
:1025E000FFF7F2FD616824684B081818FDF78CFDB1
:1025F0000004000CE060002558E061684808374B93
:102600009C466044FDF780FD80B2002545E061688E
:10261000480880235B029C466044FDF775FD80B24C
:1026200000253AE00125002037E080231B02E26903
:102630009A423DD0012539E080231B02E2699A428B
:10264000DBD0616824684808254B9C466044FDF750
:102650005BFD0004000CE060002527E080231B02E6
:10266000E2699A42D3D061682468480880231B023B
:102670009C466044FDF748FD0004000CE060002526
:1026800014E00025002DCDD1FFF79EFD61684000CC
:102690004B08C018FDF738FD80B20F2302009A43A3
:1026A000130022680007400F0343D360280070BD69
:1026B0001025E7E7FFF794FC616840004B08C0185D
:1026C000FDF722FD80B20025E7E7C046F369FFFF72
:1026D000FFCFFFFFFFF4FFFF001002400024F400D3
:1026E00000127A00436ADB0706D5026853682C495A
:1026F0000B40816A0B435360436A9B0706D502680F
:10270000536828490B40C16A0B435360436A5B0717
:1027100006D50268536824490B40016B0B43536094
:10272000436A1B0706D50268536820490B40416B7A
:102730000B435360436ADB0606D5026893681C4965
:102740000B40816B0B439360436A9B0606D502687E
:10275000936818490B40C16B0B439360436A5B0657
:102760000BD50268536814490B40016C0B4353604E
:1027700080235B03026C9A420AD0436A1B0606D58B
:10278000026853680D490B40816C0B4353607047DE
:10279000026853680A490B40416C0B435360ECE7F5
:1027A000FFFFFDFFFFFFFEFFFFFFFBFFFF7FFFFFC0
:1027B000FFEFFFFFFFDFFFFFFFFFEFFFFFFFF7FF71
:1027C000FFFF9FFF10B5041E37D06923C35C002BA9
:1027D00029D069232422E2542268136801218B4303
:1027E00013602000FFF7BAFE01281BD0636A002B9C
:1027F0001FD12268536812490B40536022689368C6
:1028000008218B4393602268136807390B431360D8
:102810000023E36620226831625401316254483259
:10282000A354002010BD68330022C25402F01CFEE5
:10283000CFE72000FFF756FFDBE70120F2E7C046B5
:10284000FFF7FFFFF8B5CE46474680B580460D003E
:1028500016009946089F43461B68DC692C40641BA0
:1028600062425441B44221D17A1CF6D0002F05D0E7
:10287000FDF700FD4B46C01AB842ECD943461A6832
:1028800013680D490B40136043461A689368A331DF
:10289000FF318B4393602023692241468B540132E0
:1028A0008B5448330022CA54032000E00020C0BCEF
:1028B000B946B046F8BDC0465FFEFFFFF0B5CE4654
:1028C000474680B583B004000D0016001F00692341
:1028D000C35C202B5DD1002961D0002A61D0802308
:1028E0005B0182689A421BD06823E35C012B5AD0BB
:1028F00068230122E2540023E36669332032E25464
:10290000FDF7B8FC80465023E6520233E652E35A04
:102910009BB2002B2DD0522680235B0199460EE0FE
:102920000369002BE0D1CB07DED5012032E023681C
:102930002A781A850135A35B9BB2002B19D0A25BC4
:10294000013A92B2A2530097434600228021200010
:10295000FFF778FF002828D1A3684B45E7D123690A
:10296000002BE4D122682B88DB05DB0D13850235B3
:10297000E1E700974346002240212000FFF762FF75
:10298000002814D169232022E254013B0022E254A2
:1029900000E0022003B0C0BCB946B046F0BD012043
:1029A000F8E70120F6E70220F4E70320F2E703202E
:1029B000F0E70000F0B5D6464F464646C0B582B0B7
:1029C00004000D0016001F006A23C35C202B00D0FA
:1029D0007AE0002900D17EE0002A00D17DE080234A
:1029E0005B0182689A4221D06823E35C012B00D10D
:1029F00075E068230122E2540023E3666A33213242
:102A0000E254FDF737FC80465823E6520233E65283
:102A1000A3688022520193420FD0002B13D1236967
:102A2000002B21D15C33FF22E2520CE00369002B22
:102A3000DAD1CB07D8D5012047E02369002B0FD18D
:102A40005C33294AE2525C23E35A99465A23E35AFB
:102A50009BB2002B30D05A2680235B019A4611E0AE
:102A60005C23FF22E252EEE75C237F22E252EAE798
:102A700023689B8C4A4613402B700135A35B9BB2A5
:102A8000002B19D0A25B013A92B2A25300974346A1
:102A9000002220212000FFF7D5FE002821D1A368C5
:102AA0005345E5D12369002BE2D123689B8C4A462C
:102AB00013402B800235E1E76A232022E254023BD7
:102AC0000022E254002000E0022002B0E0BCBA463E
:102AD000B146A846F0BD0120F7E70120F5E7022046
:102AE000F3E70320F1E7C046FF0100006923C35C60
:102AF000212B2FD13133C35A9BB2002B0BD102684B
:102B0000136880218B4313600268136840390B43BC
:102B1000136000201FE080235B0182689A420CD082
:102B2000C36C5A1CC26402681B7813855222835AF4
:102B3000013B9BB2835200200DE00369002BEFD1D3
:102B40000268C36C1B88DB05DB0D1385C36C023385
:102B5000C364EBE70220704710B502681368402198
:102B60008B43136069232022C25402F0C5FA00206F
:102B700010BD000010B503005C22815A0E32825C49
:102B8000222A32D10268928C92B2802040019C6845
:102B900084420DD0586D441C5C65114001705A216F
:102BA0005A5A013A92B25A520020002A0AD010BD55
:102BB00018690028EED1586D0A4002805A6D023221
:102BC0005A65ECE719680A680B4802400A60196800
:102BD0008A682330FF3082438A606A222021995418
:102BE000180001F0C1FF0020E1E7026893690821A5
:102BF0000B4393610220DAE7DFFEFFFF70B50400AC
:102C00000268D3691168180769D1980601D588064A
:102C100009D492681A0601D50A0658D45B0601D574
:102C2000490658D470BD2000FFF7A4FFFAE75A0701
:102C300008D5002D06D0226804201062E26E02380A
:102C40000243E2661A0709D520220A402A4305D02A
:102C5000226808201062E26E0243E266E26E002AF9
:102C6000E0D09B0601D589061FD4E36E1B0703D471
:102C700023689B685B0624D52000FFF74FFB236881
:102C80009A68520619D59A6840218A439A60636E01
:102C9000002B0ED0234A5A63606EFDF71AFE0028FF
:102CA000C0D0606E436B9847BCE72000FFF762FF1F
:102CB000DBE7200001F05EFFB4E7200001F05AFFDF
:102CC000B0E7200001F056FF0023E366AAE72000EA
:102CD000FFF70CFFA6E72000FFF73EFFA2E7906892
:102CE00001250540902040000840284300D191E78D
:102CF000D80706D5C80504D501201062E26E02434C
:102D0000E2669A0793D5002D9CD0226802201062BB
:102D1000E26E02300243E26618428CD11A0797D461
:102D20009CE7C0464925000810B51B4B44225A7049
:102D300004329A700432DA7004321A7104325A7111
:102D400004329A710432DA7104321A7204325A72FD
:102D500004329A72114B92325A8005329A80FA22CA
:102D6000D200DA800E4A1A810E4A5A810E4A9A819E
:102D70006432DA810D4A1A820D4A5A820D4A9A82C9
:102D80000123064C0C4859000A5B92B20A520133E7
:102D90000B2BF8D110BDC046980000206400002025
:102DA0003408000098080000FC080000C409000076
:102DB000280A00008C0A00007C00002010B5084B97
:102DC000197040229A70022119710022DA70054CA4
:102DD0002478DC711A7298715A715A70997210BD08
:102DE00030020020F801002010B510318C00E4B250
:102DF0002100FFF7E3FF064B00221A70054A064840
:102E00000B232100FEF718F9002800D0C04610BDA2
:102E100065020020300200206001002010B5604BE8
:102E20009B8B9BB2002B10D15D4B05229A835D4A90
:102E3000138801339BB21380138813889BB21D2B18
:102E40000DD8594B1B78002B00D110BD564C207863
:102E5000C0B20121FFF7C8FF00232370F5E7514BF3
:102E60001B889BB21D2B06D94E4B1B889BB23B2B5C
:102E700001D8C046E9E74B4B1B889BB23B2B34D9AA
:102E8000484B1B889BB2632B2FD8484B1B78DBB277
:102E9000072BDAD9464B1B78002B06D1444B012275
:102EA0001A70444B00221A70CFE7414B1B78DBB2FB
:102EB0000A2B0DD83F4B1B78012B07D0C0463C4A4C
:102EC00013780133DBB213701378EAE7C046F6E7F4
:102ED000374B1B78DBB20A2BE3D9344A002313703B
:102EE000354A1370324A1370DBE72E4B1B889BB2B6
:102EF000632B06D92B4B1B889BB28B2B01D8C0466A
:102F0000A3E7284B1B889BB28B2B18D9254B1B881A
:102F10009BB2D7229200934211D2274B1B78DBB28F
:102F2000022B00D891E7244B00221A7001210120C6
:102F3000FFF75AFF40212148FDF788FF85E7194B2D
:102F40001B889BB2D7229200934207D3154B1B8854
:102F50009BB21B4A934201D8C04676E7114B1B88AF
:102F60009BB2174A934206D90E4B1B889BB2154A57
:102F7000934200D869E70B4B1B889BB2124A9342DD
:102F800000D862E7074B00221A800B4A13780133FE
:102F9000DBB21370054A13780133DBB2137054E7C8
:102FA00084020020AA00002060000020A70000206A
:102FB000A6000020A5000020A80000200004004872
:102FC000610300007503000065040000094B0A223C
:102FD0001A70013A9A70073A1A710022DA70DA719F
:102FE0001A729A715A71587001394A425141597294
:102FF0007047C046BC020020F0B5D6464F4680B5AB
:103000000023184E184F01229146FE329446174D68
:1030100017480EE04A468A401100624611402A884D
:103020009246032254460C4212D0C2540133042B60
:1030300014D01900F45C0422002CF6D03A8892B225
:10304000002AE7D00B4AD25C052AE3D10222ECE742
:10305000094A12880A405242D20FE6E7C0BCBA467B
:10306000B146F0BD78030020660300206C03002009
:10307000C6020020700300205C030020054BFF22E5
:103080001A705A709A70DA701A715A719A71DA71EC
:103090007047C046FC0200200A4B46221A802D3A97
:1030A0005A8002219980183ADA80198102325A81B5
:1030B0009A81D9811A8200225A829A820E31D9824B
:1030C0001A83704794030020214B1B78002B32D0C9
:1030D000204B1B889BB2002B2DD11F4B1B8A9BB210
:1030E000002B28D11A4B1B78042B0FD0184B1B78C0
:1030F000022B0BD0184BC8221A82184B1B78012BBD
:1031000020D09023DB0502229A620BE0124BFA22B8
:1031100052001A82114B1B78012B0DD09023DB0536
:1031200002229A610A4B1B78002B04D0084A1378BC
:10313000013BDBB2137070479023DB05F43AFF3A92
:103140009A61EBE79023DB05C73A9A62D9E7C0465C
:103150003E0300205603002084020020620300206A
:103160000F4A1388034313800E4B1B88034216D16A
:10317000002814D00B4A138803431380002340080F
:103180001A000133DBB20028F9D1074B9B5CDBB29C
:10319000022B04D804498B5C0133DBB28B5470479B
:1031A0006C030020420300205003002001281CD0A3
:1031B000002838D11C4A0023002113801B4A1360C9
:1031C0001B4A13801B4A13801B4A13801B4B197028
:1031D0001B4B19709023DB05802212019A62012299
:1031E0009A62184B02321A701DE0174B1B883C2262
:1031F000534301339BB20C4A138013889BB20B4A92
:1032000013600B4A13880B4313800B4A13880B433C
:1032100013809023DB05802212019A6101229A61BA
:10322000084B01321A7070475603002068020020D4
:103230006C030020640300204203002045030020AB
:10324000470300206000002004000020F0B5C646BF
:1032500000B5744B1B889BB2002B00D1DEE000242C
:10326000714D01239846714F04E0FFF779FF013457
:10327000052C1CD02B5D032BF9D14346A34098B2FB
:103280003E881E42F3D06A4B1B889BB2002BECD1C8
:10329000684B1B5DDBB2022BE9D866490B5D01333D
:1032A000DBB20B5501000120FFF780FFDFE70024B0
:1032B0005D4D5E4E370019E05F4B1B889BB2002BC3
:1032C00021D15E4B1B78032B03D05C4B1B78042B66
:1032D00019D1574B1B889BB2002B56D1554B9B5C89
:1032E000DBB2022B44D90134052C51D022002B5DD6
:1032F000012BF8D1A34098B231881942DCD1504B50
:103300001B78012BD8D03B880342ECD04A4B1B885A
:103310009BB2002BE7D1494B1B78022B03D0474BC4
:103320001B78052BDFD1434B9B5CDBB2022BDAD839
:10333000434B1B78002BD6D1404B03221A70404BD5
:10334000023A1A70E3B23F4A13703F4A13880133BE
:103350009BB239490B80138801333C4A53603C4B84
:103360003C4A5A809023DB05802212019A61BAE719
:1033700030498B5C0133DBB28B5401000120FFF735
:1033800015FF2E4B05221A70ADE7FFF7E9FEAAE7FD
:103390000024254D254E370011E0274B1B889BB29A
:1033A000002B1AD1224B1B889BB2002B33D1214B0F
:1033B0009B5CDBB2022B24D90134052C2ED02200D9
:1033C0002B5D022BF8D1013BA34098B23188194202
:1033D000E3D1214B1B78012BDFD03B880342EBD09C
:1033E000154B1B889BB2002BE6D0144B1B78DBB22D
:1033F000022BE1D9184B01221A70E3B2174A13705D
:10340000DAE70C498B5C0133DBB28B5401000120FD
:10341000FFF7CCFED0E7FFF7A3FECDE780BCB846B0
:10342000F0BDC04666030020700300205C0300204E
:103430005603002050030020640300204D030020A9
:1034400047030020460300200800002068020020F7
:1034500048030020204E00004503002044030020C4
:10346000F0B583B000226B469A716B46DA71073370
:103470001B78DBB2042B00D974E06B469D1D00273E
:10348000394EDC1D10E02378DBB2384AD35C042BC4
:1034900018D02B78012B18D023780133DBB223709E
:1034A0002378DBB2042B5DD82F7033889BB2002BBE
:1034B000E9D12378DBB22E4AD35C042BE9D1033B5C
:1034C0002B70E6E7033B2B70E3E72278D2B2934000
:1034D0009BB201AA1380274B1B8812881A4234D052
:1034E000254B1B8801AA12881A422ED1234B1B8818
:1034F0009BB2002B1DD16B4607331B78DBB2204AF1
:10350000D35CDBB2022BC7D86B46DA79D2B21C4946
:103510008B5C0133DBB28B546B46998889B20120F6
:10352000FFF744FE6B469988134A13880B431380B8
:10353000B2E76B46988880B2FFF712FE6B46998817
:103540000D4A13880B431380A6E70A4B1B8801AA78
:1035500012881A42A0D101AB1988074A13888B43FD
:10356000138099E703B0F0BD6603002070030020CC
:10357000780300205C030020400300205603002055
:103580005003002070B50B4B1B889BB2032B00D05F
:1035900070BD00230848094C0600032502E00133F2
:1035A000052BF5D0C25C052AF9D0E25C012AF6D1E0
:1035B000F554F4E766030020700300207803002030
:1035C00010B500230649074C052002E00133052B06
:1035D00004D0CA5C022AF9D1E054F7E710BDC04616
:1035E0007803002070030020F0B5134B9B889BB23A
:1035F000002B20D1104B5A229A80104B1B889BB273
:10360000002B18D00E4B1B889BB2002B13D000232D
:103610000C490D4D01240D4F002602E00133052B0E
:1036200009D0CA5C012AF9D1288822009A401042A8
:10363000F4D03E70F2E7F0BD840200206403002065
:1036400066030020700300205C03002000000020BF
:10365000174B5B8A9BB2002B07D1164B1B889BB282
:10366000002B03D1144B02229A627047114B1B8826
:103670009BB2012B12D0104A536902214B40536177
:103680000C4B1B889BB2022B0CD00A4B1B889BB2A5
:10369000032BEAD1064B96225A82E6E7064B02221A
:1036A0009A61E2E7024BE12252005A82DDE7C0460E
:1036B000840200206603002000140048012802D084
:1036C000022822D07047164B1B789B0704D5154B58
:1036D0001B889BB2012B11D0114B1B785B0704D5C3
:1036E000104B1B889BB2022B08D00D4B1B781B077D
:1036F000E8D50C4B1B889BB2032BE3D10A4B02226B
:103700001A700A4B013A1A82DCE7054B1B78DB077B
:10371000D8D5054B04221A70044B033A1A82D1E71C
:1037200063030020660300203E0300208402002083
:1037300010B5914B1B68012B1AD08F4B5B68012B86
:1037400035D08E4B1B889BB2002B04D08C4B1B7842
:10375000012B00D1A7E0894B1B889BB2002B04D022
:10376000874B1B78032B00D1EDE0FFF7ADFC10BDBC
:10377000814A00231360834A002113809022D205DE
:10378000012090628020000190627F4A11707F4A80
:1037900011707F4A1380794B1B889BB2002B02D19A
:1037A000774B02221A707A4B00221A80C5E7724BBF
:1037B00000225A60714B1A80714B1B78012B32D05A
:1037C0006F4B1B78032B03D06D4B1B78042B34D12C
:1037D000704B1B78DBB2704AD35CDBB2022B2CD867
:1037E0006C490A78D2B26C48835C0133DBB28354F3
:1037F0000B78DBB20121994089B20120FFF7D6FC9A
:103800005F4B05221A70604B1B78012B15D1604B62
:1038100000221A80614B1B78DBB20120984080B2F5
:10382000FFF79EFC09E0564B02321A705C4B1B7886
:10383000012B0ED00120FFF741FF524B1B889BB29A
:10384000002B00D07DE79023DB05802212019A62D5
:1038500077E7544B1B78022BECD1534B1B78002B92
:1038600001D1C046E6E7504B1B78022B0ED04E4BE1
:103870001B78012BDED14D4B1B889BB2012BD9D17C
:10388000FFF79EFE494B02221A80D3E7474B1B8865
:103890009BB2012BEBD1FFF793FE444B03221A801E
:1038A000FFF770FEC6E7374B1B889BB2002B00D09A
:1038B00051E73E4B1B889BB2032B00D14BE73C48A2
:1038C00001783C4B4900CA5A013A92B2CA52027876
:1038D0005200D35A9BB2002B00D046E70378012B4D
:1038E00016D0334B1B78002B00D03EE7234B1B88B0
:1038F0009BB2082B22D82F4BFA2292005A802C4BD5
:1039000001221A709023DB05802212019A612CE7B4
:103910001A4B1B889BB2082B0CD8264BFA2252015B
:103920001A80234B00221A709023DB05802212019B
:103930009A621AE71F4B204A1A80F2E71D4BFA22BF
:1039400092005A80DBE71B4B5B889BB2002B00D1B7
:103950000BE7184A5388013B9BB2538053889BB2B4
:10396000002B00D001E79023DB05802212019A6230
:10397000034B04221A70F8E668020020640300205A
:103980004D0300205603002045030020470300207C
:10399000420300204603002050030020440300207F
:1039A000000000200A000020A6020020660300207C
:1039B0004C03002048030020204E000010B50749AA
:1039C000487103000A33DBB20222CA540B30C2B280
:1039D0000348C823FEF772FF10BDC046BC0200209A
:1039E000F000002010B50949487103000A33DBB22A
:1039F0000222CA54C0460B30C2B20548FEF708FD89
:103A0000002800D0C046C04610BDC046BC02002001
:103A1000F000002070B515001C00FFF7D7FA05492B
:103A200002238B71CD710C72FFF7E6FA0420FFF7C9
:103A3000D9FF70BDBC02002010B5384BDB8A9BB2A9
:103A4000002B0BD1354BE1229200DA82344B1B78EC
:103A5000012B04D0334B1B78012B51D010BD314BBF
:103A60001B78012B18D0304B1B78002B03D02F4B29
:103A70001B78002B25D02D4B1B78012B2ED02C4BE7
:103A80001978C9B22B4B1A882B4B1B88DBB2D2B2E8
:103A90000520FFF7BFFFE1E7224B00221A70274BFA
:103AA0001B78012B06D00023062201210720FFF7F7
:103AB000B1FFD3E70023083201210720FFF7AAFF57
:103AC000CCE71F4B1978C9B2174C2278D2B2002329
:103AD0000720FFF79FFF00232370BFE7144B1978DF
:103AE000C9B2144B1A88144B1B88DBB2D2B2052022
:103AF000FFF790FF0D4B00221A700B4B1A70ADE7C9
:103B0000074B1B78002BA9D1064B00221A7000230B
:103B1000073201210720FFF77DFF9FE78402002085
:103B2000B2020020B1020020B002002058030020A1
:103B3000AE020020660300206C030020B3020020C8
:103B4000AF020020012829D000284CD1264B19882B
:103B5000264A11805988264A11809988254A118061
:103B60009979254A1170197A5170997A9170197B57
:103B7000D17004211171997B204A1170197C204A5F
:103B80001170997C1F4A1170197D1F4A1170D98AD2
:103B90001E4A11801A8B1E4B1A8024E0134B1A8880
:103BA000114B1A80124A12885A80124A12889A803F
:103BB000114A1178D9805178198191785981D27838
:103BC0009A810E4A1278DA810D4A12781A820D4AC9
:103BD00012785A820C4A12789A820C4A1288DA8237
:103BE0000B4A12881A837047B00300200600002099
:103BF0000800002004000020780300200A000020B4
:103C00006303002062030020A602002002000020BF
:103C10006003002010B50120FFF794FF022001F09F
:103C2000B5FA01F03FFB0020FFF78CFF10BD00004C
:103C300010B5074BDB899BB2002B00D010BD044BA5
:103C4000C8229200DA81FFF70BFCFFF7FFFAF5E7D5
:103C50008402002010B5094B1B7A052B00D010BD43
:103C600000230749074C052002E00133052BF6D05D
:103C7000CA5C012AF9D1E054F7E7C046BC02002033
:103C8000C60200207003002010B5384B00221A70C5
:103C9000032844D00CD8012815D0022830D1344B49
:103CA0001B889BB2002B2CD0324B02221A7027E0CB
:103CB000042825D12E4B1B889BB2002B46D02D4BC0
:103CC00004221A701CE02A4B1B889BB2002B09D1DE
:103CD000274B1B889BB2002B0FD1274B1B889BB215
:103CE000002B0AD0214B01221A70214B0021198090
:103CF000224B1A700220FFF7E1FC1E4B01221A70C2
:103D000010BDFFF7A7FF194B01221A70184B1A803C
:103D10001A4B01321A700120FFF7D0FCC4E7144B94
:103D20001B889BB2002B03D0124B03221A70E7E7CB
:103D3000FFF790FF0D4B01221A700D4B01321A80D4
:103D40000E4B1A700120FFF7B9FCEDE7FFF782FF79
:103D5000064B01221A70064B02321A80074B013AB9
:103D60001A700120FFF7AAFCA9E7C046AF020020A5
:103D700066030020B00200206C0300200E0000202B
:103D8000064B9B68012B00D07047044B00229A60C1
:103D90009023DB05802212019A62F5E76802002079
:103DA000074BDB68012B00D07047054A0023D36026
:103DB000044A1370044A1370044A1370F4E7C046AF
:103DC00068020020B2020020B3020020B1020020ED
:103DD000F0B585B0A84B1B8B9BB2002B01D005B072
:103DE000F0BDA54B0A221A83A44F20213800FDF70D
:103DF00021F80500019010213800FDF71BF806009E
:103E00000290802190200902C005FDF713F80400FC
:103E1000039008213800FDF70DF8030035432C43CB
:103E20002043C0B201280AD0954B1B78002B00D14B
:103E3000BDE0934B00221A70924B1A70CFE7924A62
:103E400000211170019A012A29D0012B2CD0029B4C
:103E5000012B2FD0039B012B32D08B4B1B78012BD6
:103E600034D0894B1B78022B30D0874B1B78042B26
:103E70002CD0854B1B78082B28D0814B1B78002B2E
:103E800000D181E07E4B1B787F4A1278DBB29342EF
:103E90007AD07B4B00221A707A4B1A709FE77A49CE
:103EA0000A7802430A70D0E7774A137802210B435D
:103EB0001370CCE7744A137804210B431370C9E7DD
:103EC000714A137808210B431370C6E76C4B1B78BB
:103ED000002B0CD06A4B1B786B4A1278DBB29342F2
:103EE00005D0674B00221A70664B1A7077E7664B55
:103EF0001B78DBB2624A1370624A13780133DBB27B
:103F000013701378DBB21E2B00D868E7FFF7B6F802
:103F10005D4B1A78D3B2042A28D0042B0FD8012B7A
:103F200018D0022B28D1594B1B889BB2002B23D1D0
:103F30000420FFF7A9FE564B01221A701CE0082B43
:103F40001AD1544B04221A71534A138810210B437F
:103F5000138011E04D4B1B889BB2002B0CD102202B
:103F6000FFF792FE4A4B01221A7005E00120FFF78D
:103F70008BFE474B01221A70434A00231370404ABC
:103F80001370404A13702AE73F4B1B78DBB23C4A60
:103F900013703C4A13780133DBB213701378DBB231
:103FA000052B00D81BE7364B00221A7017E7354B5C
:103FB0001B78DBB2052B58D9384A13780133DBB2B2
:103FC00013701378DBB20A2B00D808E7C046C0464E
:103FD000C046C0462C4B1B78033BDAB2092A36D8C0
:103FE00093002F4AD3589F462E4A13780133DBB2F1
:103FF00013702D4B1B88DB0729D5274A1388012115
:104000000B43138023E0294A13780133DBB213708A
:10401000254B1B88DB071AD51F4A138801218B43C8
:10402000138014E0204B1B889B0710D51A4A138875
:1040300002210B4313800AE01B4B1B889B0706D50C
:10404000154A138802218B43138000E0C0460E4AB4
:10405000002313700A4A13700A4A13700F4A137030
:10406000BDE6C046F3E7C046F1E7054B00221A70F3
:10407000044B1A70B3E6C0468402002000040048D6
:10408000AC020020AB020020AD0200206C03002037
:1040900058030020780300205E030020AA020020BD
:1040A000D4560008A902002002000020A802002027
:1040B000F0B5D6464F464646C0B5002301251C4CF8
:1040C0001C481D4E1D4A90461D4A944682460CE0EF
:1040D0000188114301803188114203D1414609888A
:1040E000114212D10133052B18D0290099408AB210
:1040F00027880F42ECD167463F881742E8D15246E5
:1041000012888A4351460A80ECE70E4A03219160E7
:104110009022D205802109019161E3E7054B1B88BC
:104120009BB2054A1380E0BCBA46B146A846F0BD32
:104130005E0300205C0300205A030020600300207F
:104140008A0300206802002010B5164B1B889BB222
:10415000002B04D1144B1B889BB2002B0ED1114BAA
:104160001B889BB2002B13D10E4B01221A800F4BE0
:1041700001321A700120FFF7A1FA10BD094B00228D
:104180001A800A4B01321A700220FFF797FAF4E7FF
:10419000044B00221A80054B01321A700220FFF7EF
:1041A0008DFAEAE7660300206C0300200E00002071
:1041B00010B56F4B1B899BB2002B13D16C4B232284
:1041C0001A816C4B1B78012B0DD06A4B1B78022B8C
:1041D0004ED0684B1B78012B58D0664B1B78022BB6
:1041E00000D18EE010BD644C2000FCF75FF9FA218D
:1041F00089002000FCF78AF900280DD0C0465F4BEB
:104200001B881B095E4A138013889BB2B02B0AD906
:104210005C4B00221A80DCE75748FCF7D5F980B2E6
:10422000564B1880EBE7564B1B889BB2802B08D966
:10423000534B1B889BB2B02B03D8524B02221A80DF
:10424000C7E74F4B1B889BB2572B08D94C4B1B8899
:104250009BB2802B03D84B4B01221A80B9E7484B05
:104260001B889BB2572BB4D8464B03221A80B0E769
:1042700001214548FCF7DEFD002803D1414B012216
:104280001A80A6E73F4B00221A80A2E73F4B1B880B
:104290003C4A12889BB2934217D03D4A1388013B97
:1042A0009BB2138013889BB2002B00D09AE7374B48
:1042B0001B889BB2002B0CD0324B1B889BB2002B6F
:1042C00013D0334B08221A808CE7314B08221A8016
:1042D00088E7304B02221A702A4B1B889BB22B4A6C
:1042E00013800120FFF7EAF97CE72A4B01221A70BC
:1042F000244B1B889BB2254A13800220FFF7DEF96E
:1043000070E7204B1B889BB2012B0CD01D4B1B88E8
:104310009BB2002B03D1204B1B78012B1AD01C4BD6
:1043200008221A805EE71C4B1B78002BEED1184A3E
:104330001388013B9BB2138013889BB2002B00D0E3
:1043400050E7154B01221A70114B02321A80FFF709
:10435000FBFE47E70E4A1388013B9BB2138013888C
:104360009BB2002B00D03DE70B4B00221A7039E7BF
:10437000840200200A000020AC0100203C03002041
:104380003A03002068030020000400486603002070
:104390000C0000200E000020A7020020084A11781F
:1043A000C9B2084B19705178C9B259709178C9B225
:1043B0009970D178C9B2D9701279D2B21A71704796
:1043C0007803002070030020034B00221A705A70FB
:1043D0009A70DA701A7170475003002010B50028E7
:1043E00002D0012823D010BDFFF7EEFFFFF7D6FF64
:1043F0001F4A002313701F4A13701F4A13701F4A6D
:1044000013701F4A13701F4A13801F4A13801F4ADC
:10441000012111701E4A53601E4A13880F318B43CD
:1044200013809023DB05802212019A62DBE7FFF7FD
:10443000CBFF194A138801339BB212490B801388B2
:104440000133134A5360154B00221A800F4B01327F
:104450001A70134B1B889BB2032BC4D0114B002244
:104460001A70114B114A1A80FA2292005A80BAE748
:104470000E0000204D0300204703002045030020CC
:1044800046030020640300204203002000000020B7
:10449000680200205E030020060000206C0300205C
:1044A000660300204C03002048030020204E00003B
:1044B00010B5012802D0002861D010BD00235B494F
:1044C0005B48CA5C052A03D8C2540133042BF8D1D7
:1044D000584A917B584B1980D17B584B1980117CDD
:1044E000574B1980517C574B1970917C564B197062
:1044F000D17C564B1970137D013B59424B41DBB2C5
:10450000527D012A32D04B4A927D012A31D0494A4C
:10451000D27D012A30D04E4A1370464A937E4D49CF
:104520000B800888D37E9B00DBB203430B80137E95
:1045300049490B800888537E9B0010221343DBB24D
:1045400003430B80FFF766FB00210020FEF72EFEE1
:104550000020FFF743FF01210120FEF737FD002077
:10456000FFF72CFA3D4B01221A70A6E701321343E4
:10457000C9E703321343CAE707321343CBE70121EC
:104580000230FEF723FD2B4B01229A71284A117845
:1045900099725178D97291781973D2785A73264AE0
:1045A00012889A73254A1288DA73254A12881A7477
:1045B000244A12785A74244A12789A74234A127838
:1045C000DA74234B1B78DB0702D51A4B01221A75CC
:1045D0001F4B1B789B0702D5164B01225A751C4BAB
:1045E0001B785B0702D5134B01229A75184B1B7879
:1045F0001B0702D50F4B0122DA75164801880D4BB7
:10460000032211409976018889081140D976124811
:10461000018811401976018889080A405A761220CB
:10462000FFF7CCF90D4B01221A7046E7C6020020B5
:1046300078030020BC0200200800002006000020B3
:10464000040000200A000020A602002062030020CF
:10465000630300206003002002000020B402002059
:1046600070B5324B00221A70314B1C88314B5B798C
:104670001A000B32944205D02D4B00221A80FEF70F
:10468000FDFC70BD3B2CF7D8E31ADBB20B2BF3D14A
:104690002849294D2200280000F03CFD2B79022BEF
:1046A000EAD1264BE35C022BE6D1234A9379527878
:1046B000012B03D0022B0BD0C046DDE7012A03D02B
:1046C0000020FFF7F5FED7E70120FFF7F1FED3E763
:1046D000194BD8791A4B96225200DA6007281BD062
:1046E0000DD8042803D8002813D1C046C4E70628F3
:1046F000FBD1144B01221A70134B1A70BCE7082827
:10470000F3D1124A012313700E4A13700E4A13702C
:10471000B2E7FFF7B9FAAFE70A4B00221A700B4B6A
:104720001A70094B01321A70A6E7C046B402002085
:10473000B8020020FC020020BC020020BB020020C6
:1047400068020020B2020020B1020020B302002063
:1047500010B5154B1B78012B04D0144B1B78012B83
:104760000DD010BD124B9B8A9BB2002BF5D10E4B86
:1047700000241C70FFF774FF0E4B1C80F1E70B4BFD
:1047800000221A70084B01321A700B4B1988013144
:1047900089B21980064B27329A82084BC9180848FB
:1047A000273AFDF7CDFDDCE7B50200208F0300209E
:1047B00084020020B6020020B8020020FC02002083
:1047C000F000002010B5254B5B899BB2002B09D16E
:1047D000224B0A225A81224B1B78DAB2012B02D0DB
:1047E000022A0ED010BD1F4B1B889BB2002B03D199
:1047F0000020FFF7F3FDF5E700210020FEF7D6FCCF
:10480000F6E7174B00221A7000231749174C0800CF
:1048100002E00133052B06D0CA5C052AF9D0E25C20
:10482000D2B2C254F5E7124B1B889BB2022B0BD0BD
:104830000F4B1B889BB2032B06D00120FFF7CEFD48
:104840000C4B01221A70CDE7FEF7BAFE084B1B880D
:104850009BB2032BF1D1FEF795FEEEE78402002018
:104860000E0000206C03002070030020780300205D
:10487000660300204D0300201C4B1B889BB2002BBD
:1048800016D01B4B02221A701A4A1388013B9BB2A6
:10489000138013889BB2002B1CD1130002221A80B4
:1048A0009022D205516980235B014B40536111E096
:1048B000114B1B889BB2002B0DD10D4B01221A709E
:1048C0009023DB058021490199610C4B1A70094B3B
:1048D00002221A807047064B00221A709023DB05D3
:1048E000802149019962054B1A70F0E76C030020A2
:1048F0006A030020100000205C030020AE020020AC
:1049000010B590201021C005FCF794FA002800D0C3
:1049100061E05B4A138801218B43138090202021A2
:10492000C005FCF787FA00285BD1554A138802219D
:104930008B43138090204021C005FCF77BFA0028B0
:1049400055D14F4A138804218B4313809020802136
:10495000C005FCF76FFA00284FD1494A1388082197
:104960008B431380474B1B78002B09D0464B1A888A
:10497000434B1B885340DB0745D4444B07221A8026
:10498000404B5B78002B09D03F4B1A883C4B1B886F
:1049900053409B0746D43D4B07225A80394B9B78A6
:1049A000002B09D0384B1A88354B1B8853405B07C6
:1049B00047D4364B07229A80324BDB78002B09D044
:1049C000314B1A882E4B1B8853401B0748D42F4B62
:1049D0000722DA8010BD2A4A138801210B43138075
:1049E0009CE7274A138802210B431380A2E7244A3D
:1049F000138804210B431380A8E7214A1388082158
:104A00000B431380AEE7214A1388013B9BB213800E
:104A100013889BB2002BB3D11B4A138801214B4052
:104A20001380ADE7194A5388013B9BB253805388EA
:104A30009BB2002BB2D1144A138802214B40138041
:104A4000ACE7124A9388013B9BB2938093889BB258
:104A5000002BB1D10C4A138804214B401380ABE7E3
:104A60000A4AD388013B9BB2D380D3889BB2002BE8
:104A7000B0D1054A138808214B401380AAE7C046ED
:104A80008C030020780300208A030020800300208C
:104A900010B5084B9B899BB2002B00D010BD054B75
:104AA00028229A81FFF72CFFFFF702FBFFF7E4FEB5
:104AB000F4E7C0468402002010B5FFF779FBFFF74A
:104AC00087F9FEF7C5FDFFF77DFEFFF7E1FFFFF772
:104AD00057F9FFF7ADF8FEF72BFEFEF785FD10BD89
:104AE00000B595B012230893113B0B930D930F3330
:104AF0000C930E930E3B109300231193A02292036C
:104B00001292139308A8FDF721F8002828D1072353
:104B10000493053B0593002306930793012104A802
:104B2000FDF796FA00281CD101230093002302937D
:104B30006846FDF759FB002814D1FDF73FFBFA2129
:104B40008900FBF7E1FAFBF711FE0420FBF72AFED0
:104B50000120002200214042FBF7CCFD15B000BD32
:104B6000FEE7FEE7FEE70000014B01221A707047E6
:104B70008F030020034B01221A70034B09325A8322
:104B80007047C0468E03002084020020C046024BBE
:104B900001221A70C046704765020020C046024BD1
:104BA00001221A70C04670476602002010B5C04648
:104BB000C0460448FCF771FF062801D0C04610BD6E
:104BC000C046FBE760010020FEE7000010B5124B75
:104BD000FA2292001A800A221A8300245C830F4B67
:104BE00033321A610E4B363A1A805A809A80DA8034
:104BF0001A810C4B063A1A7001325A7001329A70BF
:104C0000DA7000221A71FFF7DFFB074B1C805C8013
:104C1000FEF78AF810BDC04684020020680200201A
:104C200080030020780300204803002010B50D4BBE
:104C30001B78012B00D010BD0A4B00221A700023F4
:104C40000948040002E001330F2BF4D05A00125A35
:104C500092B2002AF7D059000A5B013A92B20A5385
:104C6000F1E7C046900300208402002010B588B010
:104C7000374BDB690693069B01330693C046354BE1
:104C80001B68DB699B0600D5C046C046314B1A68DD
:104C900020211162C0461B68DB699B0700D5C04616
:104CA000C0462C4B1A6802211162C0461B68DB69A2
:104CB000DB0700D5C046C046264B1A6801211162A9
:104CC000C0461B68DB695B0700D5C046C046214B68
:104CD0001A6804211162C0461B68DB691B0700D5F6
:104CE000C046C0461B48036808221A62C046C04638
:104CF000026840231362C04602681362C04603681C
:104D000010221A62C0460368802292021A62C046CC
:104D10000368802212011A62C046C04603688022DE
:104D200012031A620A4B9B8C9BB21E246C44238094
:104D3000C0460A23022201A9FDF73CFE2080C0469E
:104D4000238801339BB22380C04608B010BDC04603
:104D500000380140F000002010B50C4B5B8B9BB27B
:104D6000002B03D10A4B1B78012B00D010BD084B40
:104D700000221A70FFF77AFF064907480122FDF763
:104D8000DFFA0028F2D0C046F0E7C04684020020D7
:104D90008E030020FC020020F000002010B5154B0F
:104DA0001B889BB2002B24D1124BFA2292001A804E
:104DB000114B1B78002B09D10F4B01221A700F4B9E
:104DC0007F329A6200230E4C200009E00A4B002239
:104DD0001A700A4B80329A61F4E70133052B08D030
:104DE0009A001259012AF8D999000A58013A0A5032
:104DF000F3E710BD84020020F80100200004004801
:104E00006802002010B50A00012802D007280BD044
:104E100010BD094B00211970084B1988084BC9189F
:104E20000848FDF78DFAF3E707490848FCF74CF905
:104E30000028EDD0C046FEE78F030020B802002016
:104E4000FC020020F0000020FC0100206001002096
:104E5000F0B5DE4657464E464546E0B58BB0FBF70B
:104E6000F1F9FFF73DFE1422002105A800F0E5FB53
:104E7000954D6B698022D20313436B616B691340BC
:104E80000293029B6B698022920213436B616B69F0
:104E900013400393039B6B698022D20213436B611F
:104EA0006B6913400493049B884B9B4600220321AB
:104EB0001800FBF7C5FF864B9A469023DB05984602
:104EC000002251461800FBF7BBFF824F0022C02191
:104ED0003800FBF7B5FF0323994605930126069694
:104EE00000240794089405A95846FBF7C1FE5346D1
:104EF000059306960794089405A94046FBF7B8FE6B
:104F0000F02305930694079605A94046FBF7B0FEEB
:104F10004B4605930694079605A93800FBF7A8FEB3
:104F200080231B020593069402239946079305A943
:104F30004046FBF79DFE3823059306944B460793A6
:104F400005A93800FBF794FEC02305930696079445
:104F5000089405A93800FBF78BFE6B6933436B613E
:104F60006B691E400196019B002200210A20FBF77D
:104F7000C1FB0A20FBF7F0FB5748584B0360962310
:104F80009B0143608460C46004610C2343618461BD
:104F9000C46104624462FDF715FC002800D08CE077
:104FA0004F48504B0360504B4360402383603F3B6E
:104FB000C3600023036143618361C3610362FBF744
:104FC000D5FF00287AD146480021FCF769FD00286A
:104FD00075D143480021FCF78FFD002870D143486C
:104FE000434B036080231B06436010238360002330
:104FF000C36001220261042141618361C3610262D5
:105000004362C221FF318162C36203634263FBF7E3
:105010009DF9002855D10823059380235B01069351
:1050200003230793314805A9FBF7D2FA002849D199
:1050300000F092F800F094F8FFF7C8FD254B8022AD
:105040009A61403A9A619024E40580235B01A3624F
:105050001E4B3E3A9A620125A56280263601A66162
:10506000E1208000FBF70CF9A662FEF715F800F0CE
:1050700031F90020FEF766FDFFF790F93220FBF7CB
:10508000FFF801210120FFF7BDFE3220FBF7F8F801
:10509000184B1D70C046C046FFF7C8FDFFF77EFEE7
:1050A000FFF70AFDFFF754FBFEF7C6FCFEF778FE9C
:1050B000FDF7B4FEFFF750FEEEE7FEE7FEE7FEE782
:1050C000FEE7FEE7FEE7C04600100240001400487D
:1050D0000319000000040048F000002000380140DF
:1050E00060010020005400400E090020AC010020A7
:1050F0000024014064020020044B02689A4200D060
:105100007047034B01221A70FAE7C046003801408D
:10511000F901002030B5002A0DD00023551E03E010
:1051200001339CB2944206D20C7804709D42F7DDA4
:1051300001310130F4E730BD10B5012240210448AF
:10514000FBF77EFE012201210248FBF779FE10BD2C
:10515000000400480014004810B5FFF7EDFF10BD33
:10516000704700000300022903D00020012904D069
:105170007047044A4300985AFAE7034A5B00985A7A
:10518000F6E7C046B003002094030020F0B5D646F1
:105190004F464646C0B582B0050000240194FBF797
:1051A00033FC394B3422DA6038480460384B4360B2
:1051B0000123836001A9FBF7FBFC002800D0C04657
:1051C000344B334A1A60344B01221A701B78012B7E
:1051D00022D10324314E00272E4B98462E4B994660
:1051E0000CE0C0462B4A1368043313602A4B1B782B
:1051F000012B11D1013CE4B2002C0DD043461968BB
:1052000032003B000220FBF74BFC0028E9D00023D2
:105210004A461370C046E5E71E4B214A1A601E4BF2
:1052200001221A70002499460126B046194F9A4669
:105230000CE0184A136802331360174B1B78012BDC
:1052400017D0C0460134E4B20D2C14D04B46424670
:105250001A7029002000FFF785FF0200396800233B
:105260003000FBF71DFC0028E3D0002352461370EA
:10527000DFE7C046E6E7FBF7DBFB02B0E0BCBA467F
:10528000B146A846F0BDC04600200240CC03002035
:1052900000780008D8030020120000202143658711
:1052A0000C78000810B5084B084A1A60084A140028
:1052B0001A3419000B681888108002330B60023210
:1052C000A242F7D110BDC046D80300200C780008D8
:1052D000B0030020F8B5CE46474680B51D4B1E4AA8
:1052E0001A601E4B01221A701B78012B1DD102334C
:1052F000184F1B4E1B4A9146184A9046002294466E
:105300003C00404608E0043222600278012A0CD1B9
:10531000013BDBB2002B08D03A6811683160494587
:10532000F1D0414665460D70EDE70C4B1B78002B24
:1053300008D00D4B80229A61FFF7B4FFC0BCB9467C
:10534000B046F8BD0120FFF721FF074B80229A628B
:10535000F2E7C046D80300200078000812000020C1
:1053600014000020214365870004004800B583B085
:10537000124A916901231943916192691340019383
:10538000019B0520002200214042FBF7B3F90220D7
:10539000002200214042FBF7ADF90120002200214C
:1053A0004042FBF7A7F9002200210420FBF7A2F9F5
:1053B0000420FBF7D1F903B000BDC0460010024045
:1053C00000B587B00D4B02689A4201D007B000BD0E
:1053D0000B4B9A69802189000A439A619B690B40B3
:1053E0000093009B02230193013302930023039354
:1053F00001A90448FBF73CFCE8E7C0460024014053
:10540000001002400004004800B587B0144B026849
:105410009A4201D007B000BDC023DB0001931223E4
:105420000293113B039302330493013305939020BD
:1054300001A9C005FBF71CFC0A4BDA69802189032E
:105440000A43DA61DB690B400093009B00220021D4
:105450001720FBF74FF91720FBF77EF9DAE7C04674
:105460000054004000100240F0B5C64600B586B0BA
:105470000400274B02689A4203D006B080BCB846AD
:10548000F0BD244B9A698021C9010A439A619B6946
:105490000B400093009B04230193023B9846029328
:1054A000002503950495012605969027FF0501A97F
:1054B0003800FBF7DDFB0823019343460293039674
:1054C0000495059601A93800FBF7D2FB1248134B4F
:1054D00003601023436085607033C36005614561DC
:1054E0008561C561FBF774F900280BD10A4B23666F
:1054F0005C62002200211B20FBF7FCF81B20FBF75D
:105500002BF9BAE7922106484900FFF75DFBEDE76A
:105510000038014000100240AC0000201C00024096
:10552000FC5600087047C046C046C046C046C0464C
:10553000F9E770477047000010B5044B01221A705C
:10554000FAF790FEFBF73FF910BDC046900300202C
:1055500010B5044C2000FBF7E9FD2000FCF749FAE8
:1055600010BDC0466001002010B50248FBF7D6F917
:1055700010BDC046AC00002010B50248FDF73EFB50
:1055800010BDC046F0000020114B1A6801210A43EB
:105590001A605A680F4802405A601A680E48024062
:1055A0001A601A680D4802401A605A680C48024096
:1055B0005A60DA6A0F208243DA621A6B09480240A5
:1055C0001A635A6B8A435A6300229A607047C04636
:1055D000001002400CB8FF08FFFFF6FEFFFFFBFFC4
:1055E000FFFFC0FFECFEFFFF0D4885460D480E494A
:1055F0000E4A002302E0D458C4500433C4188C422D
:10560000F9D30B4A0B4C002301E013600432A24291
:10561000FBD3FFF7B9FF00F019F8FFF719FCFEE71D
:1056200000100020000000201C0000203857000857
:1056300020000020DC030020FEE7030082189342D4
:1056400000D1704719700133F9E7000070B50026EA
:105650000C4C0D4D641BA410A64209D1002600F08D
:1056600019F80A4C0A4D641BA410A64205D170BD5E
:10567000B300EB5898470136EEE7B300EB58984774
:105680000136F2E730570008305700083457000859
:1056900030570008F8B5C046F8BC08BC9E467047B5
:0C56A000F8B5C046F8BC08BC9E46704738
:1056AC0002030405060708090A0B0C0D0E0F101057
:1056BC00000000000102030405060708090A0B0C90
:1056CC000D0E0F10000000004C4000084E4000086A
:1056DC00E83F000862400008064000084E40000801
:1056EC0024400008384000084E400008664000087E
:1056FC002E2E2F5372632F73746D3332663078787D
:10570C005F68616C5F6D73702E63000000000000B9
:10571C000102030400000000000000000102030469
:04572C00060708095B
:04573000E900000884
:04573400C1000008A8
:1057380001001000020046001900020008000300E2
:0C57480002000100CDAB103200127A000C
:04000005080055E9B1
:00000001FF
