:020000040800F2
:1000000000100020F5530008315300083353000856
:1000100000000000000000000000000000000000E0
:100020000000000000000000000000003F53000836
:100030000000000000000000415300084553000884
:1000400045540008000000004554000845540008CD
:10005000455400084554000845540008455400081C
:10006000000000004554000875530008455400087E
:10007000455400084554000845540008000000009D
:10008000455400080000000000000000455400082E
:100090000000000045540008455400085D53000866
:1000A00000000000455400080000000085530008CF
:1000B0000000000000000000000000000000000040
:1000C00010B5064C2378002B07D1054B002B02D02E
:1000D000044800E000BF0123237010BD2000002071
:1000E0000000000090540008044B10B5002B03D012
:1000F0000349044800E000BF10BDC04600000000F6
:100100002400002090540008002243088B4274D33E
:1001100003098B425FD3030A8B4244D3030B8B4208
:1001200028D3030C8B420DD3FF22090212BA030C11
:100130008B4202D31212090265D0030B8B4219D3F2
:1001400000E0090AC30B8B4201D3CB03C01A524112
:10015000830B8B4201D38B03C01A5241430B8B425A
:1001600001D34B03C01A5241030B8B4201D30B0343
:10017000C01A5241C30A8B4201D3CB02C01A52416A
:10018000830A8B4201D38B02C01A5241430A8B422D
:1001900001D34B02C01A5241030A8B4201D30B0216
:1001A000C01A5241CDD2C3098B4201D3CB01C01A30
:1001B000524183098B4201D38B01C01A524143093A
:1001C0008B4201D34B01C01A524103098B4201D328
:1001D0000B01C01A5241C3088B4201D3CB00C01A95
:1001E000524183088B4201D38B00C01A524143080D
:1001F0008B4201D34B00C01A5241411A00D2014632
:10020000524110467047FFE701B5002000F006F8A4
:1002100002BDC0460029F7D076E770477047C04658
:1002200010B5040001F0AAFFFA218900FFF76CFF66
:1002300000F09AFA002221000120404200F056FA14
:10024000002010BD10B5064A136810210B4313603F
:100250000020FFF7E5FF04F09FFF002010BDC0461F
:1002600000200240024A1368013313607047C04601
:10027000A0000020014B18687047C046A000002075
:1002800030B583B00190FFF7F5FF0500019C631CBA
:100290005A1E9341E418FFF7EDFF401BA042FAD32A
:1002A00003B030BD70B582B0040000230193026832
:1002B000916803330B40012B2DD09168204B1942DC
:1002C00031D1936801210B4393601E4B18681E497E
:1002D000FFF71AFF0190019B002B05D0019B013B0A
:1002E0000193019B002BF9D1FFF7C4FF0600012504
:1002F00023681B681D4221D1FFF7BCFF801B022829
:10030000F6D9636C102213436364A36C0F3A134352
:10031000A364012010E013680020DB070CD4D3682D
:100320001B0409D4C9E7636C102213436364A36CF4
:100330000F3A1343A364012002B070BD0020FBE715
:10034000170000801800002040420F0070B5041E06
:1003500000D1A4E0436C002B73D0636CDB0600D5A6
:1003600097E0226893680421194000D091E0636C03
:100370004C4803400630FF30034363649068032316
:100380000340012B63D0D36818208343A068034344
:10039000D360226813699B009B0860680343136164
:1003A0002268D36840480340D360A3699A03E36995
:1003B000DB031A43206A4503636B0E00012B01D057
:1003C00080267601E3681A432A432369022B45D02D
:1003D000236B5B00134333430B43626A012A3FD014
:1003E000A26AC221FF318A4202D0E16A0A43134362
:1003F0002168CA681A43CA60A26B802149058A42F3
:1004000002D0013A062A0AD820684169072291439E
:10041000416121684869A56B2A4002434A6122680C
:10042000D26822490A40934229D0636C1222934336
:10043000023A13436364A36C0F3A1343A36401208D
:100440002CE083644022835404F0D0FE85E71368D7
:10045000DB07A5D4D3681B0495D5A1E70421B7E732
:10046000002803D1802252021343B9E7626C202195
:100470000A436264A26C1F390A43A264B0E70023F6
:10048000A364636C03229343023A13436364002022
:1004900004E0636C102213436364012070BD0120EB
:1004A000FCE7C046FDFEFFFF1902FEFFE7FF3F83AA
:1004B00010B5040003689B6802205B0700D510BDDF
:1004C0004023E35C012BFAD001224023E254E3698C
:1004D000012B04D02000FFF7E5FE0028EFD1636C6C
:1004E000094A1A4080235B00134363640023A3641A
:1004F0004022A3542368243A1A6022689368042196
:100500000B4393600020DAE7FEF0FFFFF8B506002A
:100510000D004469082C04D00368DB680C24DB0759
:1005200018D4FFF7A7FE07003268136823421AD1D8
:100530006B1CFAD0002D04D0FFF79CFEC01B854237
:10054000F2D2736C04221343736400224023F254EA
:1005500003202DE0436C20221343436400224023F8
:10056000C254012024E0716C80239B000B43736410
:10057000D168C0231B01194213D1336A002B10D15B
:1005800013681B070DD593685B0712D453680C21C1
:100590008B435360736C0B4A13400432FF32134396
:1005A00073640020B369002B02D133680C221A60F7
:1005B000F8BD736C202213437364B36C1F3A13436A
:1005C000B364EEE7FEFEFFFF0368186C704700009F
:1005D00030B583B00400002301934033C35C022094
:1005E000012B73D001224023E25423689A685207FA
:1005F00064D4384A4868904248D0986A01220D680D
:10060000AA4002439A62A36B80225205934213D000
:10061000013B062B10D922685069072303408868E4
:10062000984209D050690723984350612268506965
:100630008D682B40034353610B681A00103A002069
:10064000012A40D8244A1268102B1CD08023DB03D7
:100650001343214A13600B680020102B33D11F4B2A
:1006600018681F49FFF750FD8300181840000190DB
:10067000019B002B2CD0019B013B0193019B002B84
:10068000F9D100201FE080231B04E1E79A6A0120D2
:100690000D68A84082439A620B681A00103A002045
:1006A000012A10D80C4A1268102B05D00D4B1340AC
:1006B000094A1360002006E00B4BF8E7636C202228
:1006C00013436364012000224023E25403B030BD91
:1006D0000020F8E701100000082701401800002062
:1006E00040420F00FFFFBFFFFFFF7FFF70B50028F4
:1006F00014DB83089B00154A94466344C026B60069
:100700009D5903242040C000FF2214008440A543CB
:1007100089010A4082402A439A5170BDC0B20F231A
:100720000340083B9B089B00094A94466344DD69EB
:1007300003221040C000FF2422008240954389011B
:100740000C4084402C43DC61E7E7C04600E100E058
:1007500000ED00E01F2318401E3B8340014A136058
:100760007047C04600E100E0431E0A4A0120934260
:100770000ED8094A53600948036A1B021B0AC021AC
:1007800009060B43036200239360073313600020C4
:100790007047C046FFFFFF0010E000E000ED00E002
:1007A000042805D0054A136804218B431360704761
:1007B000024A136804210B431360F8E710E000E0DD
:1007C000704710B5FFF7FCFF10BD000070B5041EA8
:1007D0002DD021250223435501680B68154A1A4084
:1007E000436880680343E06803432069034360690A
:1007F0000343A0690343E069034313430B60236889
:100800000D4A9446634418001421FFF77DFC8000D4
:1008100020640A4BE3630023A362E3622363636300
:10082000A363012262551F32A354002070BD012032
:10083000FCE7C0460FC0FFFFF8FFFDBF000002400D
:1008400070B52024055D1E3C012D0AD001251E3403
:1008500005550134045D012C05D000222023C2542B
:100860000224200070BD0135203405550024846326
:10087000066835680134A5433560C56B066CB44025
:100880006C60046863604368102B12D00368996041
:100890000368DA60C36A002B10D0026813680E2167
:1008A0000B4313600268136801210B43136000249B
:1008B000D7E703689A600368D960EBE702681368BA
:1008C0000A210B4313600268136806398B431360D7
:1008D000E8E710B52123C35C022B03D00423836314
:1008E000012010BD026813680E218B43136001685C
:1008F0000A6801239A430A60C26B1900046CA14084
:1009000051602122835400221F33C254436B002BB9
:1009100002D098470020E4E70020E2E770B5C36BFF
:100920001A6804682568016C04238B401A4212D0AF
:100930006B0710D523689B0603D4236804229343D6
:100940002360C26B0423016C8B405360C36A002B8D
:1009500000D0984770BD02238B401A4218D0AB07D5
:1009600016D523689B0606D423680A229343236086
:10097000093A2123C254C26B0223016C8B4053609D
:1009800000222023C254836A002BE3D09847E1E77A
:1009900008238B401A42DDD02B07DBD523680E22BB
:1009A00093432360C26B01231900046CA140516082
:1009B00083632122835400221F33C254036B002B14
:1009C000C8D09847C6E700000C4BDA680023D2066F
:1009D00005D50B4AD36902210B43D3611023074A83
:1009E000D268520706D50649CA6901200243CA6186
:1009F00004221343014AD3607047C04600200240DE
:100A0000A8000020054B1B6901201B0605D5034BE0
:100A1000034A5A60034A5A6000207047002002408F
:100A200023016745AB89EFCD034A136980210B434E
:100A3000136100207047C04600200240F8B5040052
:100A4000FFF718FC0700134E0125F3681D420AD07A
:100A5000631CFAD0002C1AD0FFF70CFCC01B844298
:100A6000F3D2032012E00B4BDB689B0602D5202259
:100A7000084BDA60074BDB68DB0604D4054BDB6808
:100A800000205B0702D5FFF79FFF0120F8BD032080
:100A9000FCE7C04600200240F0B5DE4657464E4611
:100AA0004546E0B583B004000E0001929846294BFC
:100AB0001B7E0220012B06D103B03CBC9046994618
:100AC000A246AB46F0BD0122224B1A762248FFF720
:100AD000B5FF002833D1012C35D0022C36D00423A9
:100AE0009B4600251B4B9A46002399461B4C1EE053
:100AF0002022D21A414691400A000199D9400B00A8
:100B000013439BB252464946D161226901273A43B9
:100B1000226133801048FFF791FF2369BB432361B3
:100B200000280CD101350236EBB29B4507D92B01C9
:100B3000202252429A18DBD44346D340E1E70022F8
:100B4000044B1A76B8E701239B46CAE702239B466B
:100B5000C7E7C046A800002050C3000000200240A4
:100B60000022064BDA61064B1A6904210A431A6116
:100B70001A693C310A431A617047C046A800002038
:100B8000002002400022064BDA61064B1A6902215E
:100B90000A431A6158611A693E310A431A61704763
:100BA000A800002000200240F0B5C64600B50600AF
:100BB0008846284B1B7E0220012B38D00122254B72
:100BC0001A763368012B28D02348FFF737FF03003C
:100BD0000120002B28D1013B424613607468B368A2
:100BE0009B021B199C4233D21C4F02252000FFF7A9
:100BF000C9FF1948FFF722FF3B69AB433B6100285F
:100C000023D18023DB009C466444B3689B02726856
:100C100094466344A342E9D806E00F48FFF70EFF6D
:100C200003000120002B05D000220A4B1A7604BCD9
:100C30009046F0BDFFF794FF0748FFF7FFFE074A15
:100C4000136904218B431361EEE743461C60EBE715
:100C50000120E9E7A800002050C300000020024066
:100C6000F0B5DE4657464E464546E0B585B00A68C3
:100C7000002A00D1B6E000250123994602339A46A6
:100C80005C4B9B465C4B98463CE0EC08A400041986
:100C9000276A05332B409B000F229A4097430A692D
:100CA0009A4013003B43236236E0836823409C460E
:100CB000CB68BB406246134383604368B3431E0066
:100CC0004B681B094A461340AB403343436037E04F
:100CD000002466E04C4664E0022462E0544660E092
:100CE000019A134368E0019A13436CE0019A13439D
:100CF00070E0019A13434246D36001350A6813003D
:100D0000EB406FD04E46AE4032400192F5D04B687A
:100D10001024A343022BB8D003686F005446BC4094
:100D2000E44323409C464B6852461340BB40624616
:100D3000134303604B6810229343013B012BB4D94A
:100D4000C36823408C68BC401C43C4604B6880224D
:100D500052051342D1D05B469B694A4613435A461B
:100D6000936193694A4613400393039BAB089B002E
:100D7000224A944663449C6857462F40BF000F2682
:100D8000BE40B44326009022D2059042A0D01C4C15
:100D9000A0429FD01B4CA0429ED01B4CA0429DD095
:100DA0000524BC4034439C6043461B68019AD443ED
:100DB0004A68D20394D423404246136053684A6879
:100DC000920390D423404246536093684A68D2020B
:100DD0008CD4234042469360D3684A68920288D4F8
:100DE000234088E705B03CBC90469946A246AB46F6
:100DF000F0BDC04600100240000401400000014068
:100E00000004004800080048000C00480069084041
:100E1000411E8841C0B27047002A01D181627047EB
:100E20008161FCE7436959404161704703689A69F1
:100E3000920701D500229A6203689A69D20703D407
:100E40009A6901210A439A617047000030B504682D
:100E50006068064D28408905890D039D2B43194381
:100E600012040A430243626030BDC046009800FC91
:100E7000436B184A934218D0174A934215D0002367
:100E80004A0700D5B833CA0701D5F22213438A07AF
:100E900001D5F422134312221140122917D00268FF
:100EA00011680B4313600020704700234A0700D5E8
:100EB000B83311220A40112A06D0122211401229F9
:100EC000EDD14E321343EAE77F321343F5E70E329A
:100ED0001343E4E7E91800082516000810B50023BD
:100EE000CA0706D54133C35C28221340282B1CD0E7
:100EF000F2238A0707D54122825C28242240282A2F
:100F000015D0F42213434A0701D5B8221343112206
:100F10000A40112A0ED01222114012290DD0016868
:100F20000A689A430A60002010BD4223E1E71C32A0
:100F30001343E8E77F321343EDE74E321343EEE706
:100F400010B5041E59D04123C35C002B43D024228A
:100F50004123E2542268136801218B431360226805
:100F6000274B61680B4013612268936825490B4049
:100F70009360E368012B34D0226884231B02A168AC
:100F80000B439360E368022B32D0226851681E4BFA
:100F90000B4353602268D3681A490B40D360216821
:100FA000236962691343A26912021343CB6022686A
:100FB000E369216A0B4313602268136801210B4324
:100FC0001360002363641F314122A1542363013263
:100FD000A354002010BD00224033C25404F02AF96B
:100FE000B5E7226880231B02A1680B439360C9E721
:100FF0002368802212015A60C7E70120EAE7C04651
:10100000FFFFFFF0FF7FFFFF0080000230B583B0DD
:1010100004004120255C3F38202D01D003B030BDB5
:101020002068856902202D04F8D43E30255C3E38C6
:10103000012DF3D001253E302554203501302554B3
:10104000113D013025540020606462626385114BBC
:10105000E362114B6363638D9BB2FF2B14D9FF23B3
:10106000238580235B04228DD2B2802080010090F2
:101070002000FFF7EBFE00224023E2540121200074
:10108000FFF7F6FE0020C9E7638D238580239B04CC
:10109000E9E7C0460000FFFF7D170008F8B54123CF
:1010A000C45C3F3B202C01D01800F8BD3E33C45C2B
:1010B0003E3B012CF8D04024013B03552225403310
:1010C000C554023D0133C554002545640668736864
:1010D000084F3B40736041624285438D0385064B58
:1010E000C362064B436305550621FFF7C1FE00238B
:1010F000DAE7C046FF7FFFFF0000FFFF4114000852
:1011000010B5036899691A68436B002B00D09847A3
:1011100010BD70B5040000224223C254013BC35CE1
:10112000212B0FD020224123C2542F3B03630025E3
:1011300045630221FFF7D2FE4023E554200003F06F
:10114000B3FC70BD20322033C254303B0363002512
:1011500045630121FFF7C2FE4023E554200003F060
:101160009BFCEEE77047704710B504000022422355
:10117000C254013BC35C292B04D04123C35C2A2BFE
:101180000FD010BD28321833C254203B0363012115
:10119000FFF7A4FE00224023E2542000FFF7E2FF05
:1011A000EFE728221733C2541F3B03630221FFF7E6
:1011B00095FE00224023E2542000FFF7D4FFE0E731
:1011C0007047704710B50400164BC36200230363D9
:1011D00020204122A0540132A35463634B0712D54F
:1011E000636A5A1C62622268526A1A70238D002B4D
:1011F00009D0013B2385638D013B9BB26385636C02
:1012000004221343636407212000FFF767FE23686D
:101210001022DA6100224023E2542000FFF7D1FFC0
:1012200010BDC0460000FFFF7047704770470000C8
:1012300010B50400002342228354364AC26243851B
:10124000436C194341644123C35C282B15D04123CF
:10125000C35C292B11D04123C35C2A2B0DD007215D
:10126000FFF73CFE4123E35C602B02D020224123A8
:10127000E2540023236363630AE003212000FFF7A5
:101280002DFE28224123E25400232363224B636373
:1012900023681A6852040DD41A6812041DD441231D
:1012A000E35C602B2CD000224023E254200003F0AA
:1012B00003FC10BD1A6819490A401A60A36B184A4A
:1012C0005A6300224023E254A06BFFF702FB002880
:1012D000EFD0A06B436B9847EBE71A6811490A40BF
:1012E0001A60E36B0E4A5A6300224023E254E06B1B
:1012F000FFF7EFFA0028DCD0E06B436B9847D8E7A4
:1013000020221F3BE2540022013BE2542000FFF761
:101310008DFFCEE70000FFFF41140008FFBFFFFF75
:10132000371A0008FF7FFFFF70B504000D00036847
:101330002022DA610368183ADA610721FFF7CEFD4F
:101340002268516880231B020B4353602268536854
:1013500039490B4053602000FFF768FD226813688D
:101360005B0402D413681B0408D54123E35C212BE2
:101370003AD0E36B1B685B689BB26385638D9BB25D
:10138000002B03D0636C04210B4363646B0711D5FE
:10139000636A591C6162526A1A70238D002B09D04E
:1013A000013B2385638D013B9BB26385636C042203
:1013B00013436364002323634222A3546363636C77
:1013C000002B16D1E26A1D4B9A421FD14123E35CE8
:1013D000222B26D020224123E2540022013BE2545A
:1013E0002000FFF7BFFE70BDA36B1B685B689BB25C
:1013F000C3E7616C2000FFF71BFF4123E35C282B50
:10140000F1D129002000FFF7DDFEECE7E3622022A6
:101410004123E2540022013BE2542000FFF7D1FEB9
:10142000E1E720221F33E2540022013BE254200076
:10143000FFF799FED7E7C04600E800FE0000FFFF77
:10144000F8B5CE46474680B504000D00160040238F
:10145000C35C0220012B41D001224023E254CB0681
:1014600040D5F3063ED5638D9BB2002B26D1E26AB0
:1014700080239B049A420ED0E26A9A420BD0E26A21
:10148000674B9A4203D04123E35C292B0CD023689D
:101490001022DA6119E04123E35C282BEFD1290007
:1014A0002000FFF78FFE10E023681022DA61200091
:1014B000FFF7BCFC2000FFF757FE06E02368102270
:1014C000DA61636C0C3A13436364AB0602D5B3066E
:1014D00000D5A0E000224023E25400200CBC90463E
:1014E0009946F8BD6B071ED573071CD5638D9BB25B
:1014F000002B0CD0636A5A1C62622268526A1A700E
:10150000238D013B2385638D013B9BB26385638DF6
:101510009BB2002BD9D1E26A414B9A42D5D0200030
:10152000FFF722FED1E72B0701D5330715D4AB0710
:10153000CBD5B307C9D5638D9BB2002B5ED0226893
:10154000636A591C61621B789362638D013B9BB295
:101550006385238D013B2385B7E74123E35C282284
:101560001340282B06D023680822DA61002240238A
:10157000E254AAE723689969C903CA0F90469F6994
:101580003F0CFE2217409A68D9688946E168022913
:1015900027D19205920DD1094F400621394211D130
:1015A000A16C0131A164A16C022900D08DE700215A
:1015B000A1640820D8614023E15441462000FFF790
:1015C000FFFD82E704212000FFF788FC0022402372
:1015D000E254FE324B461A4041462000FFF7F0FD30
:1015E00073E704212000FFF779FC00224023E25436
:1015F0003A0041462000FFF7E3FD66E7E26A8023F8
:101600005B049A4203D0E36A002B00D05DE7200020
:10161000FFF7AAFD59E729002000FFF785FE59E7EB
:101620000000FFFF10B504004023C35C0220012B23
:1016300035D001384023E054CB0620D5D3061ED543
:101640004123E35C212B0BD0E36B1B685B685A42A0
:101650005341DBB2002B0AD023681022DA611AE072
:10166000A36B1B685B685A425341DBB2F2E7236805
:101670001022DA61636C0C3A134363640BE00B07CE
:1016800005D5130703D523680822DA6103E08B062A
:1016900001D5930604D400224023E254002010BD5B
:1016A0002000FFF741FEF6E710B504000368202292
:1016B000DA61026853682F480340536000232363B4
:1016C00063632D4BE362CB0606D523681022DA61F3
:1016D000636C0C3A134363642000FFF7A7FB0321FC
:1016E0002000FFF7FBFB636C002B1BD14133E35C55
:1016F000602B17D04123E35C212B18D04123E35CFE
:10170000222B13D120221F33E2540133E35C402B00
:1017100026D000234222A354023AA354200003F00F
:10172000C3F903E0616C2000FFF782FD10BD2022A9
:101730002033E2540133E35C402B08D000234222E3
:10174000A354023AA354200003F0A6F9EEE70023C5
:101750002232A354023AA3542000FFF765FDE5E7C7
:1017600000232232A354023AA3542000FFF75DFD68
:10177000DCE7C04600E800FE0000FFFF70B582B065
:1017800004000D0016004023C35C0220012B20D072
:1017900001224023E254CB0601D5F3061BD46B078C
:1017A00024D5730722D5636A5A1C62622268526A82
:1017B0001A70238D013B2385638D013B9BB26385AA
:1017C000AB0602D5B30600D587E000224023E254E1
:1017D000002002B070BD23680F32DA61636C0C3AEE
:1017E000134363642000FFF721FBE9E7AB070FD544
:1017F000B3070DD52268636A591C61621B78936236
:10180000238D013B2385638D013B9BB26385D7E725
:101810002B0640D57306D3D5238D002B2ED1638D97
:101820009BB2002B2AD0236859688905890D638DE6
:101830009BB2FF2B0ED8628D92B22285E06A294BB3
:10184000984212D0E36AD2B2002000902000FFF745
:10185000FDFAB5E7FF2323850023009380235B0473
:10186000FF222000FFF7F2FAAAE7D2B2002300938A
:1018700080239B042000FFF7E9FAA1E723685B6857
:101880009B0103D42000FFF744FC99E7402120008E
:10189000FFF7CEFC94E76B0600D491E7730600D403
:1018A0008EE7638D9BB2002B12D123685A68920198
:1018B00000D585E7E16A0B4A914203D02000FFF78B
:1018C00028FC7DE759688022D2010A435A6077E7F5
:1018D00040212000FFF7ACFC72E729002000FFF751
:1018E000E3FE72E70000FFFF10B582B00400402362
:1018F000C35C0220012B5ED001384023E054CB06AC
:1019000001D5D3062FD40B064DD553064BD52268EF
:10191000136840218B431360638D9BB2002B3DD035
:10192000236859688905890D638D9BB2FF2B29D9DE
:10193000FF23238580235B04228DD2B200200090F8
:101940002000FFF783FA638D228D9B1A9BB263857B
:101950004123E35C222B1AD0226811688023DB012B
:101960000B43136023E023681022DA61636C0C3AA6
:101970001343636412212000FFF77AFA2000FFF777
:1019800055FA14E0638D238580239B04D4E72268F5
:10199000116880231B020B43136008E040212000E4
:1019A000FFF746FC03E08B0601D5930605D4002221
:1019B0004023E254002002B010BD2000FFF774FE67
:1019C000F5E710B5026893691168DC050DD50C06C2
:1019D0002AD5416C01242143416480214900D16111
:1019E0005A0506D49B050ED415E05A051ED50A06E5
:1019F00011D5426C08210A43426402688021C90063
:101A0000D1619B0507D5436C0222134343640368ED
:101A1000FF32FF32DA61436C0B221A4200D110BD53
:101A2000416CFFF705FCFAE75A05F4D49B05F2D5A3
:101A30000B06F0D5E7E710B5406A026851688023CD
:101A40001B020B435360826B00235363C26B5363CF
:101A50004133C35C602B02D003F02EF810BD20226E
:101A60001F3BC254FFF7E2FBF8E7406C70470000F1
:101A7000F0B54123C25C3F3B202A01D01800F0BDE5
:101A80003E33C25C3E3B012AF8D04024012202557D
:101A90004125223343550668336893433360066813
:101AA0003368084F3B403360066833681943316040
:101AB00001680B6813430B60202343550023035533
:101AC000DCE7C046FFEFFFFFF0B54123C25C3F3BC0
:101AD000202A01D01800F0BD3E33C25C3E3B012AF3
:101AE000F8D040240122025541252233435506688F
:101AF00033689343336006683368074F3B400902FD
:101B00001943316001680B6813430B602023435570
:101B100000230355DEE7C046FFF0FFFFF0B5CE46D9
:101B2000474680B583B004000368DB0739D5B84B5E
:101B30005A680C231340042B2AD0B54B5A680C2347
:101B40001340082B20D06368012B50D0002B55D1B7
:101B5000AF4B1A68AF490A401A601A68AE490A408A
:101B60001A606368002B61D0FEF784FB0700A84E63
:101B70008025AD0233682B4213D1FEF77BFBC01BDF
:101B80006428F7D903208EE0A14B5B68DB03DAD52C
:101B90009F4B1B689B0304D501206368002B00D179
:101BA00081E023689B0765D5994B5B680C221A423C
:101BB00050D0974B5A680C231340082B46D0E3684B
:101BC000002B00D17DE0924A136801210B43136082
:101BD000FEF750FB07008E4E022533681D4267D189
:101BE000FEF748FBC01B0228F7D903205BE0884AB8
:101BF000116880235B020B431360B2E7052B09D009
:101C0000834B1A6883490A401A601A6882490A405D
:101C10001A60A6E77E4B19688022D2020A431A6036
:101C20001968802252020A431A609AE7FEF722FBE3
:101C30000700774E8025AD0233682B42B1D0FEF706
:101C400019FBC01B6428F7D903202CE0704B5B689C
:101C5000DB03B4D46E4B1B689B0703D50120E368FC
:101C6000012B20D16A490A682369DB00F8208243EE
:101C700013430B6023681B074BD5E369002B34D05B
:101C8000634A536A01210B435362FEF7F3FA0700DC
:101C90005F4E0225736A1D423BD1FEF7EBFAC01B73
:101CA0000228F7D9032003B00CBC90469946F0BD3A
:101CB00057490A682369DB00F820824313430B600D
:101CC000D8E7534A136801218B431360FEF7D2FA19
:101CD00007004F4E022533681D42CBD0FEF7CAFAEB
:101CE000C01B0228F7D90320DDE7494A536A0121C6
:101CF0008B435362FEF7BEFA0700454E0225736A16
:101D00001D4206D0FEF7B6FAC01B0228F7D9032001
:101D1000C9E723685B0700D487E03D4BDB690022FD
:101D20009046DB000BD43A4AD1698020400501433C
:101D3000D161D36903400193019B01239846374B3E
:101D40001B68DB0521D5A368012B34D0002B38D1CB
:101D50002F4B1A6A01218A431A621A6A03318A4395
:101D60001A62A368002B42D0FEF784FA8146284FFE
:101D700002262B4D3B6A1E4254D1FEF77BFA4B469E
:101D8000C01AA842F6D903208DE7244A116880239F
:101D90005B000B431360FEF76DFA05001F4F8026B2
:101DA00076003B683342CED1FEF764FA401B6428CC
:101DB000F7D9032077E7164A136A01210B43136210
:101DC000CFE7052B09D0124B1A6A01218A431A6208
:101DD0001A6A03318A431A62C3E70D4B1A6A042157
:101DE0000A431A621A6A03390A431A62B9E7FEF70C
:101DF00041FA8146064F0226094D3B6A1E4211D028
:101E0000FEF738FA4B46C01AA842F6D903204AE733
:101E100000100240FFFFFEFFFFFFFBFF00700040CD
:101E2000881300004346012B1FD02368DB064FD5E3
:101E30006369012B1FD005333ED0564B5A6B0421EA
:101E40000A435A635A6B03398A435A63FEF712FAFC
:101E50000700504E0225736B1D4239D0FEF70AFA77
:101E6000C01B0228F7D903201DE74A4AD3694A4913
:101E70000B40D361D9E7474B5A6B04210A435A639D
:101E80005A6B03390A435A63FEF7F4F90700414ECF
:101E90000225736B1D4206D1FEF7ECF9C01B022828
:101EA000F7D90320FFE63B494A6BA369DB00F82022
:101EB000824313434B630BE0364A536B04218B433D
:101EC0005363516BA369DB00F82081430B435363D9
:101ED000236A0020002B00D1E5E62E4A51680C222F
:101EE0000A40082A53D0022B14D02A4A13682B49DF
:101EF0000B401360FEF7BEF90600264D8024A404B3
:101F00002B68234241D0FEF7B5F9801B0228F7D990
:101F10000320C8E61F4A136820490B401360FEF7F0
:101F2000A9F907001B4E8025AD0433682B4206D06B
:101F3000FEF7A0F9C01B0228F7D90320B3E6154B22
:101F4000DA6A0F218A43E16A0A43DA625968A26AAF
:101F5000606A0243124801400A435A6019688022AD
:101F600052040A431A60FEF785F90600094D8024E1
:101F7000A4042B68234206D1FEF77CF9801B0228BB
:101F8000F7D903208FE600208DE600208BE60120A4
:101F900089E6C04600100240FFFFFFEFFFFFFFFE93
:101FA000FFFFC2FF30B589B004AA154B180032C834
:101FB00032C2110002680A606A46103313CB13C2A2
:101FC0001B6813600F4B5A680C231340082B13D166
:101FD000910C0733194004A8445C0A49C96A0B40B4
:101FE0006946C95CD30302D40748604305E007484B
:101FF000FEF78AF8604300E0044809B030BDC046EF
:10200000A85400080010024000093D0000127A00A8
:10201000F8B5CE46474680B505000C00514B1A680E
:10202000012313408B420BD24E490B68012293438C
:1020300023430B600B681A400120944200D08CE0CF
:102040002B689B0706D5484A5368F0218B43A96843
:102050000B4353602B68DB0755D56A68012A24D0EF
:10206000022A28D0404B1B6801209B0775D53E49AA
:102070004B680320834313434B60FEF7FBF80600D5
:102080006B68012B1DD0022B2CD0374B98460C27A8
:10209000364B994643465B681F4234D0FEF7EAF858
:1020A000801B4845F6D9032057E02F4B1B680120C1
:1020B0009B03DCD451E02C4B1B6801209B01D6D440
:1020C0004BE0294B98460C27284B994643465B68C2
:1020D0003B40042B17D0FEF7CDF8801B4845F5D9BF
:1020E00003203AE0204B98460C27204B9946434664
:1020F0005B683B40082B06D0FEF7BCF8801B4845C8
:10210000F5D9032029E0174B1A68012313409C429C
:102110000AD214490B680122934323430B600B68D6
:102120001A400120944218D12B685B0706D50E4A4D
:1021300053680F490B40E9680B435360FFF732FFC8
:10214000094B5B681B061B0F0A4AD35CD8400A4B3D
:1021500018600020FEF764F800200CBC90469946F9
:10216000F8BDC04600200240001002408813000065
:10217000FFF8FFFF3055000818000020014B1868D9
:102180007047C04618000020044B5B685B055B0F7E
:10219000034AD35C034A1068D840704700100240DD
:1021A0004055000818000020F0B5CE46474680B5DF
:1021B00083B004000368DB0336D53F4BDB690025A1
:1021C000DB000AD43C4AD169802040050143D1613B
:1021D000D36903400193019B0135384B1B68DB0534
:1021E0003CD5354B1B6AC0229200134013D0616866
:1021F0000A4093420FD0304B186A314A02401E6A9F
:102200008021490231431962196A2E4E3140196208
:102210001A62C30739D4284A136A29490B406168F6
:102220000B431362012D42D02368DB0706D5224AF7
:10223000136B03218B43A1680B43136300202368B6
:102240009B0606D51C4A136B10218B43E1680B4398
:10225000136303B00CBC90469946F0BD174A116851
:1022600080235B000B431360FEF704F88046134F96
:10227000802676003B683342B3D1FDF7FBFF43462F
:10228000C01A6428F6D90320E3E7FDF7F3FF81467F
:10229000094F02260C4B98463B6A1E42BBD1FDF704
:1022A000E9FF4B46C01A4045F6D90320D1E7D36970
:1022B00006490B40D361B7E70010024000700040B0
:1022C000FFFCFFFFFFFFFEFF88130000FFFFFFEF93
:1022D0000268136806490B40136002689368233153
:1022E000FF318B43936020226A23C2547047C0465B
:1022F000DFFEFFFF30B56A23C45C683B202C01D0B1
:10230000180030BD002948D0013B002AF8D084686D
:1023100080235B019C4222D06823C55C663B012D73
:10232000EED001256823C5544165103BC2520233EB
:10233000C252002C26D00023C36622216A22815477
:10234000023A83540268936821390B439360026810
:10235000116890235B000B4313600023D0E70369EF
:10236000002B1ED10133CC07CAD46823C35C012BD8
:1023700015D041655823C2520233C252104A02336B
:10238000C252D8E70369002B03D1FF225C33C2524B
:10239000D1E77F225C23C252CDE70123B0E70223BD
:1023A000AEE76823C45C663B012CA9D04165582385
:1023B000C2520233C252FF220233C252BBE7C046AE
:1023C000FF01000070B504006920255C6738202DEE
:1023D00000D070BD00293ED00138002AF9D08023FA
:1023E0005B01A06898422FD06823E35C0220012B98
:1023F000EFD068260123A355E1644F33E252023344
:10240000E2520025E56621211733E154236E13497A
:102410009962236E1249D962236E12491963236EA1
:102420005D632168283113000A00E16C206EFEF71D
:1024300007FA236840221A62A55522689368802112
:102440000B4393600020C4E72369002BCCD101200B
:10245000CB07C9D5BDE70120BBE7C046692400080A
:102460009B240008A524000810B5436A026812687E
:1024700092060DD400215222995219688A68802050
:1024800082438A601A68136840210B43136010BDB1
:10249000180002F06DFDFAE7704710B5406AFFF7CB
:1024A000FBFF10BD10B5446A6923E35C212B0BD000
:1024B0006A23E35C222B16D0E36E10221343E366FB
:1024C000200002F0DDFA10BD23689A681206EFD5ED
:1024D00000215222A1521A68C0318A431A60202278
:1024E0006923E254E4E723689B685B06E4D5002295
:1024F0005A23E2522000FFF7EBFEDDE710B5406AF9
:1025000000235A228352083A835202F0B9FA10BDCE
:1025100070B5040001680A68836800690343606954
:102520000343E06903435648024013430B602268AB
:10253000536854490B40E1680B43536021688A6833
:10254000A369206A03435048024013438B604F4BFA
:102550001A6B03231340012B67D0002B0AD0022BE8
:102560003ED0032B4FD080231B02E2699A4234D025
:10257000012025E080231B02E2699A4200D172E02B
:102580002568FFF701FE61684B081818FDF7BCFDD0
:102590000004000CE860002012E0636858083C4B1F
:1025A0009C4660446168FDF7AFFD83B200200F22B6
:1025B000190091430A0021681B075B0F1343CB608E
:1025C00070BDFFF7EFFC400063685B08C0186168EE
:1025D000FDF79AFD83B20020E9E701200023E6E73A
:1025E00080231B02E2699A4231D02568616848085D
:1025F00080231B029C466044FDF786FD0004000C0E
:10260000E8600020DCE780231B02E2699A42C4D024
:102610002568616848081F4B9C466044FDF774FDBF
:102620000004000CE8600020CAE780231B02E26976
:102630009A42C6D02568FFF7B5FC61684B081818A8
:10264000FDF762FD0004000CE8600020B8E7636855
:10265000580880235B029C4660446168FDF754FD86
:1026600083B20020A3E7FFF78FFD400063685B089B
:10267000C0186168FDF748FD83B2002097E7C046A7
:10268000F369FFFFFFCFFFFFFFF4FFFF00100240E1
:102690000024F40000127A00436ADB0706D50268C2
:1026A00053682C490B40816A0B435360436A9B0774
:1026B00006D50268536828490B40C16A0B43536032
:1026C000436A5B0706D50268536824490B40016BD7
:1026D0000B435360436A1B0706D5026853682049C1
:1026E0000B40416B0B435360436ADB0606D502681F
:1026F00093681C490B40816B0B439360436A9B06B4
:1027000006D50268936818490B40C16B0B43936070
:10271000436A5B060BD50268536814490B40016C91
:102720000B43536080235B03026C9A420AD0436AD6
:102730001B0606D5026853680D490B40816C0B439C
:1027400053607047026853680A490B40416C0B4361
:102750005360ECE7FFFFFDFFFFFFFEFFFFFFFBFF06
:10276000FF7FFFFFFFEFFFFFFFDFFFFFFFFFEFFF39
:10277000FFFFF7FFFFFF9FFF10B5041E37D069234F
:10278000C35C002B29D024226923E25422681368F9
:1027900001218B4313602000FFF7BAFE01281BD0F4
:1027A000636A002B1FD12268536812490B405360A3
:1027B0002268936808218B43936022681368073965
:1027C0000B4313600023E366202268316254013119
:1027D00062544832A354002010BD00226833C25412
:1027E00002F058FDCFE72000FFF756FFDBE701209E
:1027F000F2E7C046FFF7FFFFF0B5C64600B5070099
:102800000C0016009846069D3A68D36923401B1BAE
:1028100059424B41B3421ED16B1CF6D0002D05D05E
:10282000FDF728FD4346C01A8542EDD23A68136889
:102830000B490B4013603A689368A331FF318B4317
:10284000936020236922BB540132BB5400224833D9
:10285000FA54032000E0002004BC9046F0BDC046BE
:102860005FFEFFFFF0B5C64600B584B004000F0060
:1028700016001D006923C35C0220202B03D004B086
:1028800004BC9046F0BD00295AD00138002AF6D089
:1028900080235B01A2689A4218D06823E35C02207F
:1028A000012BECD001226823E2540023E36620329E
:1028B0006933E254FDF7DEFC03905023E652023305
:1028C000E652522680235B01984609E02369002BDB
:1028D000E3D1CB07E1D5D2E73B78226813850137F6
:1028E000A35B9BB2002B19D0A35B013B9BB2A3530C
:1028F0000095039B002280212000FFF77DFF002828
:1029000020D1A3684345E7D12369002BE4D13B885C
:10291000DB05DB0D226813850237E1E70095039B99
:10292000002240212000FFF767FF002801D003208C
:10293000A5E720226923E2540022013BE2549EE7EE
:1029400001209CE703209AE7F0B5D646474680B5BC
:1029500085B004000F0016001D006A23C35C02202E
:10296000202B04D005B00CBC90469A46F0BD00293F
:1029700071D00138002AF5D080235B01A2689A4209
:1029800028D06823E35C0220012BEBD001226823CE
:10299000E2540023E36621326A33E254FDF76AFC15
:1029A00003905823E6520233E652A3688022520174
:1029B000934215D0002B05D12369002B1BD1FF2298
:1029C0005C33E2525C23E35A9A465A2680235B0129
:1029D00098461AE02369002BD3D1CB07D1D5C1E7A4
:1029E0002369002B03D11E4A5C33E252EAE7FF223F
:1029F0005C23E252E6E77F225C23E252E2E72368AF
:102A00009B8C524613403B700137A35B9BB2002B5B
:102A100019D0A35B013B9BB2A3530095039B0022FB
:102A200020212000FFF7E8FE002816D1A3684345C7
:102A3000E5D12369002BE2D123689B8C52461340D9
:102A40003B800237E1E720226A33E2540022023B56
:102A5000E254002086E7012084E7032082E7C04695
:102A6000FF0100006923C25C673B212A01D01800E6
:102A700070475033C35A9BB2002B11D080235B01A7
:102A800082689A4218D0C36C5A1CC2641B780268D0
:102A900013855222835A013B9BB283520023E6E7FF
:102AA0000268136880218B43136002681368403901
:102AB0000B4313600023DAE70369002BE3D1C36CF7
:102AC0001B88DB05DB0D02681385C36C0233C3640E
:102AD000DFE710B50268136840218B4313602022A2
:102AE0006923C25402F044FA002010BD10B56A23D5
:102AF000C35C222B07D00268936908210B439361C2
:102B00000223180010BD3A33C15A03689B8C9BB254
:102B100080225201846894421ED0426D541C446548
:102B20000B4013705A23C25A013A92B2C252002388
:102B3000002AE6D1026813680C490B401360026852
:102B400093682331FF318B43936020226A23C25460
:102B500001F090FF0023D4E70269002ADDD10B4089
:102B6000426D1380436D02334365DBE7DFFEFFFFF9
:102B700070B504000268D3691168180730D198064F
:102B800001D5880609D492681A0601D50A061FD411
:102B90005B0601D54B061FD470BD2000FFF7A6FFD2
:102BA000FAE75A0741D500283FD037E02000FFF769
:102BB0009DFF4DE0200001F063FFEDE7200001F0F4
:102BC0005FFFE9E7200001F05BFF0023E366E3E736
:102BD0002000FFF747FFDFE72000FFF77AFFDBE782
:102BE00090680125284003D190256D002942CBD063
:102BF000DD0706D5CD0504D501251562E26E2A4311
:102C0000E2669A07CDD500280FD02268022515620A
:102C1000E26E02352A43E2661D4206D02268042590
:102C20001562E26E023D2A43E2661A0709D58A065A
:102C300001D4002805D0226808201062E26E024309
:102C4000E266E26E002AA7D09B0601D58B06ADD4C2
:102C5000E36E1B0703D423689B685B06B2D5200094
:102C6000FFF736FB23689A685206A7D59A68402179
:102C70008A439A60636E002B9CD0064A5A63606E4A
:102C8000FDF727FE002800D186E7606E436B98476A
:102C900082E7C046FD24000810B51B4B44225A7041
:102CA00004329A700432DA7004321A7104325A71A2
:102CB00004329A710432DA7104321A7204325A728E
:102CC00004329A72114B92325A8005329A80FA225B
:102CD000D200DA800E4A1A810E4A5A810E4A9A812F
:102CE0006432DA810D4A1A820D4A5A820D4A9A825A
:102CF0000123064C0C4859000A5B92B20A52013378
:102D00000B2BF8D110BDC046C8000020F4000020F5
:102D10003408000098080000FC080000C409000006
:102D2000280A00008C0A0000D8000020064B197009
:102D300040229A703E3A1A710022DA70DA711A72E1
:102D400098715A715A707047A401002010B5103163
:102D50008C00E4B22100FFF7E9FF0022054B1A7056
:102D6000A1B20B23044A0548FEF750F9002800D011
:102D7000C04610BD63000020A40100204C010020CB
:102D800010B5594B9B8B9BB2002B31D10522564B72
:102D90009A83564A138801339BB213801388138891
:102DA0009BB21D2B23D9514B1B889BB21D2B04D9E1
:102DB0004E4B1B889BB23B2B1BD94C4B1B889BB2A9
:102DC0003B2B38D9494B1B889BB2632B33D8484BDC
:102DD0001B78DBB2072B0BD9464B1B78002B0AD193
:102DE0000122444B1A700022434B1A7000E0C04687
:102DF00010BDC046FCE73F4B1B78DBB20A2B0DD859
:102E00003D4B1B78012B07D0C0463A4A137801335B
:102E1000DBB213701378E6E7C046F6E7354B1B7854
:102E2000DBB20A2BDFD90023314A1370334A137007
:102E3000304A1370D7E72D4B1B889BB2632B04D904
:102E40002A4B1B889BB28B2B1BD9284B1B889BB210
:102E50008B2B18D9254B1B889BB2294A934212D839
:102E6000264B1B78DBB2022BC2D90022234B1A70EF
:102E700001210120FFF76AFF80212248FDF7D2FFE0
:102E8000B6E7C046B4E7194B1B889BB21C4A934275
:102E900005D9164B1B889BB21B4A934221D9134B71
:102EA0001B889BB2184A934206D9104B1B889BB2D1
:102EB000164A934200D89BE70C4B1B889BB2144ADE
:102EC000934200D894E70022084B1A800B4A1378EB
:102ED0000133DBB21370064A13780133DBB213708F
:102EE00086E7C04684E7C046280100203E00002057
:102EF0004000002042000020410000203C00002053
:102F00005B0300000004004861030000750300003B
:102F1000650400000B4B0A221A70013A9A70073AB6
:102F20001A710022DA70DA711A729A715A71587035
:102F3000012903D00022034B5A72704701325A72A2
:102F4000FBE7C046C8020020F0B50023154E042060
:102F50000127154D0EE03A008A401100FF22114072
:102F6000124A148803220C4214D059198A72013370
:102F7000042B15D01900F45C0200002CF5D00C4A8B
:102F8000128892B2002AE6D00A4AD25C052AE2D11F
:102F90000222EAE7084A12880A405242D20FE4E7C6
:102FA000F0BDC046C0020020C80200204C00002036
:102FB000780000201C03002088000020044B19002A
:102FC0000831FF221A7001338B42FBD17047C04693
:102FD000580300200B4B46221A802D3A5A809B3210
:102FE0009A80B33ADA800221198102325A819A8199
:102FF000D9811A8200225A829A820E31D9821A838A
:103000007047C04674040020214B1B78002B25D04C
:10301000204B1B889BB2002B20D11F4B1B8A9BB2DD
:10302000002B1BD11A4B1B78042B18D0184B1B7884
:10303000022B14D0C822184B1A82184B1B78012B74
:1030400020D001229023DB059A62114B1B78002BC4
:1030500004D00F4A1378013BDBB213707047FA2299
:1030600052000D4B1A820D4B1B78012B04D001220C
:103070009023DB059A61E8E7F33AFF3A9023DB05FA
:103080009A61F4E7C63A9023DB059A62D9E7C04615
:103090006800002048000020280100206E00002069
:1030A000104A1388034313800F4B1B88034217D128
:1030B000002815D00C4A138803431380002200E037
:1030C0001A004008531CDBB20028F9D1074B9B5C67
:1030D000DBB2022B04D805498B5C0133DBB28B5485
:1030E0007047C0464C000020540000206C040020B3
:1030F000012819D0002816D10023002218490B807E
:1031000018490B6018490B8018490B8018490B802F
:10311000184B1A70184B1A709023DB05802212018D
:103120009A6202229A627047144B1B883C225343D6
:1031300001339BB20A4A138013889BB2094A136079
:10314000094A13880B431380094A138819431180D5
:103150009023DB05802212019A6102229A61E2E744
:10316000480000200C0100204C0000205C000020E2
:1031700054000020600000205A00002000000020C1
:1031800070B5724B1B889BB2002B00D1DDE0002490
:103190006F4D04E0FFF784FF0134052C1DD02B5D3B
:1031A000032BF9D10120A04080B26A4B1B88034257
:1031B000F2D0694B1B889BB2002BEBD1674B1B5D98
:1031C000DBB2022BE8D865490B5D0133DBB20B554E
:1031D00001000120FFF78CFFDEE700245C4D19E0C1
:1031E0005F4B1B889BB2002B24D15E4B1B78032BBB
:1031F00003D05C4B1B78042B1CD1574B1B889BB214
:10320000002B59D1554B9B5CDBB2022B47D90134C3
:10321000052C54D0E1B222002B5D012BF7D1012007
:10322000A04080B24B4B1B880342D9D14E4B1B7838
:10323000012BD5D0474B1B880342E8D0484B1B8855
:103240009BB2002BE3D1474B1B78022B03D0454B9D
:103250001B78052BDBD1414B9B5CDBB2022BD6D814
:10326000414B1B78002BD2D103223E4B1A70023AFD
:103270003D4B1A703D4B19703D4A138801339BB288
:1032800037490B80138801333A4A53603A4A3B4B23
:103290005A80802212019023DB059A61B7E72F49FB
:1032A0008B5C0133DBB28B5401000120FFF720FF60
:1032B00005222C4B1A70AAE7FFF7F2FEA7E70024BD
:1032C000234D11E0264B1B889BB2002B1CD1224BB7
:1032D0001B889BB2002B34D1204B9B5CDBB2022BB2
:1032E00026D90134052C30D0E0B222002B5D022B10
:1032F000F7D10121A14089B2164B1B880B42E1D1C5
:103300001F4B1B78012BDDD0124B1B880B42E8D0E2
:10331000134B1B889BB2002BE3D0124B1B78DBB204
:10332000022BDED90122164B1A70164B1870D8E703
:103330000A48835C0133DBB283540120FFF7D8FED7
:10334000CFE70800FFF7ACFECBE770BD78000020A8
:103350001C03002088000020480000206C0400208E
:103360005C0000205B0000205A0000205900002073
:10337000040000200C010020204E0000A0010020CD
:10338000600000205F000020F0B583B000226B4693
:103390009A716B46DA7107331B78DBB2042B00D9C4
:1033A00071E06B469D1D0027384EDC1D10E0237830
:1033B000DBB2374AD35C042B18D02B78012B18D002
:1033C00023780133DBB223702378DBB2042B5AD885
:1033D0002F7033889BB2002BE9D12378DBB22D4AC2
:1033E000D35C042BE9D1033B2B70E6E7033B2B7046
:1033F000E3E72278D2B293409BB201AA1380264B16
:103400001B8812881A4231D0244B1B8801AA1288CB
:103410001A422BD1224B1B889BB2002B1AD1237846
:10342000DBB2204AD35CDBB2022BC9D82278D2B2FD
:103430001C498B5C0133DBB28B546B46998889B293
:103440000120FFF755FE6B469988144A13880B43F9
:103450001380B5E76B46988880B2FFF721FE6B4674
:1034600099880E4A13880B431380A9E70A4B1B88DF
:1034700001AA12881A42A3D101AB1988074A1388FE
:103480008B4313809CE703B0F0BDC046780000205A
:103490001C030020C00200208800002064000020DF
:1034A000480000206C04002030B50B4B1B889BB2F9
:1034B000032B00D030BD00230848094C032502E04F
:1034C0000133052BF6D0C25C052AF9D0E25C012A53
:1034D000F6D1024AD554F3E7780000201C030020FF
:1034E000C002002000230649052002E00133052B1D
:1034F00005D0CA5C022AF9D1024AD054F6E77047D7
:10350000C00200201C03002030B5134B9B889BB2E7
:10351000002B20D15A22104B9A80104B1B889BB253
:10352000002B18D00E4B1B889BB2002B13D000230E
:103530000C490124002502E00133052B0BD0CA5CA5
:10354000012AF9D1084A108822009A401042F3D08B
:10355000064A1570F0E730BD280100205C0000200D
:10356000780000201C0300208800002002000020BA
:103570001A4B5B8A9BB2002B23D1194B1B889BB241
:10358000002B19D0164B1B889BB2012B1AD090220E
:10359000D205516980235B014B405361104B1B885E
:1035A0009BB2022B14D00E4B1B889BB2032B08D16D
:1035B00096220A4B5A8204E0802252019023DB05B6
:1035C0009A627047802252019023DB059A61F8E7E6
:1035D000E1225200014B5A82F3E7C0462801002045
:1035E00078000020012802D0022822D07047164B14
:1035F0001B789B0704D5154B1B889BB2012B11D060
:10360000114B1B785B0704D5104B1B889BB2022B18
:1036100008D00D4B1B781B07E8D50C4B1B889BB2C1
:10362000032BE3D102220A4B1A70013A094B1A828A
:10363000DCE7054B1B78DB07D8D50422044B1A7056
:10364000033A044B1A82D1E766000020780000207C
:10365000680000202801002010B5914B1B68012B49
:103660001AD08F4B5B68012B35D08E4B1B889BB2D9
:10367000002B04D08C4B1B78012B00D1A7E0894B89
:103680001B889BB2002B04D0874B1B78032B00D1E7
:10369000ECE0FFF7B9FC10BD0023814A1360002263
:1036A00082490B809021C905022088628020000198
:1036B00088627F490A707F490A707F4A1380794B7C
:1036C0001B889BB2002B02D10222774B1A7000227A
:1036D000794B1A80C5E70023714A5360714A138001
:1036E000714B1B78012B12D06F4B1B78032B43D0EF
:1036F0006D4B1B78042B3FD06C4B1B889BB2002B6F
:10370000B3D1802212019023DB059A62ADE7022239
:10371000654B1A70694B1B78012B03D00120FFF712
:1037200061FFE9E7664B1B78022BF7D1654B1B78ED
:10373000002B01D1C046F1E7624B1B78022B0ED063
:10374000604B1B78012BE9D15F4B1B889BB2012B8F
:10375000E4D1FFF7C7FE02225B4B1A80DEE75A4B2B
:103760001B889BB2012BEBD1FFF7BCFE0322564B0B
:103770001A80FFF799FED1E7544B1B78DBB2544A0D
:10378000D35CDBB2022BB7D850490A78D2B250488A
:10379000835C0133DBB283540B78DBB201219940A7
:1037A00089B20120FFF7A4FC05223F4B1A70404B61
:1037B0001B78012BA0D100223F4B1A80454B1B7870
:1037C000DBB20120984080B2FFF76AFC94E7374BE8
:1037D0001B889BB2002B00D051E73B4B1B889BB250
:1037E000032B00D14BE73C4802783C495200535A26
:1037F000013B9BB2535203785B005B5A9BB2002B98
:1038000000D046E70378012B16D0334B1B78002BF2
:1038100000D03EE7234B1B889BB2082B21D8FA220D
:1038200092002E4B5A8001222B4B1A7080221201DB
:103830009023DB059A612CE71A4B1B889BB2082B5F
:103840000BD8FA2252010A800022234B1A708022E0
:1038500012019023DB059A621BE7214A1F4B1A8055
:10386000F2E7FA2292001D4B5A80DCE71B4B5B8883
:103870009BB2002B00D10CE7184A5388013B9BB246
:10388000538053889BB2002B00D002E780221201A4
:103890009023DB059A620422034B1A70F9E6C046B6
:1038A0000C0100205C0000205B000020480000208C
:1038B000600000205A000020540000200200002078
:1038C000090000204A000020780000205900002054
:1038D0006C0400205F00002050000020A0010020A8
:1038E000204E000010B50749487103000A33DBB2CF
:1038F0000222CA540B30C2B2C8230348FEF7B2FFFB
:1039000010BDC046C80200201C02002010B50949A5
:10391000487103000A33DBB20222CA54C0460B309E
:10392000C2B20548FEF74EFD002800D0C046C04692
:1039300010BDC046C80200201C02002070B5150052
:103940001C00FFF7E7FA054B02229A71DD711C7229
:10395000FFF7FAFA0420FFF7D9FF70BDC802002074
:1039600010B5384BDB8A9BB2002B0BD1E1229200C1
:10397000344BDA82344B1B78012B04D0334B1B7849
:10398000012B51D010BD314B1B78012B18D0304B7F
:103990001B78002B03D02F4B1B78002B25D02D4BF1
:1039A0001B78012B2ED02C4B1978C9B22B4B1A88BF
:1039B0002B4B1B88DBB2D2B20520FFF7BFFFE1E73C
:1039C0000022224B1A70274B1B78012B06D00023B4
:1039D000062201210720FFF7B1FFD3E700230832B9
:1039E00001210720FFF7AAFFCCE71F4B1978C9B2C6
:1039F000174C2278D2B200230720FFF79FFF002345
:103A00002370BFE7144B1978C9B2144B1A88144BB2
:103A10001B88DBB2D2B20520FFF790FF00230D4ACE
:103A200013700B4A1370ADE7074B1B78002BA9D11D
:103A30000022064B1A700023073201210720FFF7EE
:103A40007DFF9FE7280100206F000020700000200C
:103A5000720000207C000020670000207800002019
:103A60004C0000207100002073000020012829D0A4
:103A7000002826D1264B1988264A11805988264AC3
:103A800011809988254A11809979254A1170197AEF
:103A90005170997A9170197BD17004211171997BC1
:103AA000204A1170197C204A1170997C1F4A1170AC
:103AB000197D1F4A1170D98A1E4A11801A8B1E4B1C
:103AC0001A807047134B1A88114B1A80124A1288B9
:103AD0005A80124A12889A80114A1178D9805178F6
:103AE000198191785981D2789A810E4A1278DA81B7
:103AF0000D4A12781A820D4A12785A820C4A1278AC
:103B00009A820C4A1288DA820B4A12881A83D8E702
:103B10009004002006000020040000200000002087
:103B2000C002002009000020660000206E00002076
:103B30004A0000200E0000208000002010B5012067
:103B4000FFF794FF022001F049FA01F0C7FA0020C4
:103B5000FFF78CFF10BD000010B5074BDB899BB24F
:103B6000002B00D010BDC8229200034BDA81FFF772
:103B70000BFCFFF705FBF5E728010020094B1B7A3A
:103B8000052B00D0704700230649052002E00133D1
:103B9000052BF7D05A18927A012AF8D1024AD0544C
:103BA000F5E7C046C80200201C03002010B5002223
:103BB000374B1A7002282DD00CD9032841D0042885
:103BC00027D1344B1B889BB2002B51D00422324B9F
:103BD0001A701EE001281CD12E4B1B889BB2002BB3
:103BE00009D12C4B1B889BB2002B0FD12B4B1B8870
:103BF0009BB2002B0AD00123254A13700021254ACD
:103C00001180274A13700220FFF7ECFC0122224B9F
:103C10001A7010BD1F4B1B889BB2002B03D00222D1
:103C20001D4B1A70F5E7FFF7A9FF0123184A13701F
:103C3000184A138002221A4B1A700120FFF7D2FC97
:103C4000EDE7144B1B889BB2002B03D00322124BD1
:103C50001A70DEE7FFF792FF01220D4B1A70013256
:103C60000C4B1A800E4B1A700120FFF7BBFCEDE7DE
:103C7000FFF784FF0122064B1A700232054B1A80AF
:103C8000013A074B1A700120FFF7ACFC9EE7C046D3
:103C90007300002078000020720000204C000020FB
:103CA00008000020064B9B68012B00D070470022C3
:103CB000034B9A60802212019023DB059A62F5E79C
:103CC0000C010020074BDB68012B00D0704700235C
:103CD000044AD360044A1370044A1370044A1370F0
:103CE000F4E7C0460C0100206F00002071000020A6
:103CF00070000020F0B585B0A84B1B8B9BB2002B49
:103D000001D005B0F0BD0A22A44B1A83802109021C
:103D10009020C005FDF77AF805000190A04E08211B
:103D20003000FDF773F80700029010213000FDF716
:103D30006DF80400039020213000FDF767F80300C0
:103D40003D432C432043C0B2012822D0954B1B7821
:103D5000002B00D0D4E0944B1B78DBB2052B00D8AD
:103D600015E1924A13780133DBB213701378DBB29A
:103D70000A2BC6D9C046C046C046C0468C4B1B78ED
:103D8000033BDAB2092A00D9F3E09300894AD358F9
:103D90009F460021864A1170019A012A29D0029A71
:103DA000012A2BD0039A012A2ED0012B32D0804B2E
:103DB0001B78012B34D07E4B1B78022B30D07C4BF0
:103DC0001B78042B2CD07A4B1B78082B28D0754BF2
:103DD0001B78002B00D180E0724B1B78744A12785C
:103DE000DBB2934279D000236E4A13706E4A13708F
:103DF00087E76F490A7802430A70D0E76C490A786E
:103E0000022002430A70CDE769490A780420024380
:103E10000A70CAE7664A137808210B431370C6E795
:103E2000604B1B78002B0CD05E4B1B78604A1278DD
:103E3000DBB2934205D000235A4A13705A4A1370DA
:103E40005FE75B4B1B78DBB2564A1370564A137818
:103E50000133DBB213701378DBB21E2B00D850E7AE
:103E6000FFF7ACF8524B1B78DBB2022B1BD00CD9FE
:103E7000042B24D0082B28D104224F4B1A714F4A0F
:103E8000138810210B4313801FE0012B1DD14C4BD5
:103E90001B889BB2002B18D10220FFF787FE01225E
:103EA000484B1A7011E0464B1B889BB2002B0CD17B
:103EB0000420FFF77BFE0122424B1A7005E001202F
:103EC000FFF774FE01223F4B1A700023384A13702B
:103ED000344A1370344A137013E7354B1B78DBB246
:103EE000304A1370304A13780133DBB21370137801
:103EF000DBB2052B00D804E700222A4B1A7000E73A
:103F00000023284A1370284A1370FAE62E4A1378C1
:103F10000133DBB213702D4B1B88DB0729D5274AF1
:103F2000138801210B43138023E0294A13780133BE
:103F3000DBB21370254B1B88DB071AD51F4A138889
:103F400001218B43138014E0204B1B889B0710D565
:103F50001A4A138802210B4313800AE01B4B1B886B
:103F60009B0706D5154A138802218B43138000E076
:103F7000C04600230E4A13700A4A13700A4A13708F
:103F80000A4A1370BDE6C046F3E7C046F1E70023D6
:103F9000044A1370044A1370B3E6C0462801002097
:103FA000000400484F0000207E0000207D0000201B
:103FB0004E000020C8540008C00200208C000020E1
:103FC0004C0000207C000020570000200E00002044
:103FD00056000020F0B500220125184C184F194852
:103FE0000CE03988194339800188194203D11649F8
:103FF0000988194212D10132052A18D029009140AE
:104000008BB226881E42ECD1104E36881E42E8D173
:104010000B4B1B888B430A490B80ECE703230C49AD
:104020008B60802109019023DB059961E3E7044B54
:104030001B889BB2034A1380F0BDC0468C00002051
:10404000880000208A0000208000002086000020D8
:104050000C01002010B5164B1B889BB2002B04D11D
:10406000144B1B889BB2002B0ED1114B1B889BB2AB
:10407000002B13D000220E4B1A8001320E4B1A7007
:104080000220FFF7AFFA10BD0022094B1A8001325F
:10409000094B1A700220FFF7A5FAF4E70122044B3E
:1040A0001A800132044B1A700120FFF79BFAEAE7ED
:1040B000780000204C0000200800002010B56F4B55
:1040C0001B899BB2002B13D123226C4B1A816C4BA2
:1040D0001B78012B0DD06A4B1B78022B4ED0684BFE
:1040E0001B78012B58D0664B1B78022B00D18EE039
:1040F00010BD644C2000FCF7DBF9FA218900200098
:10410000FCF704FA00280DD0C0465F4B1B881B0942
:104110005E4A138013889BB2B02B0AD900225C4BF5
:104120001A80DCE75748FCF74FFA80B2564B1880EC
:10413000EBE7564B1B889BB2802B08D9534B1B884F
:104140009BB2B02B03D80222514B1A80C7E74F4BCA
:104150001B889BB2572B08D94C4B1B889BB2802BDA
:1041600003D801224A4B1A80B9E7484B1B889BB2FF
:10417000572BB4D80322464B1A80B0E7022145489A
:10418000FCF744FE002803D10122414B1A80A6E728
:1041900000223F4B1A80A2E73F4B1B883C4A128803
:1041A0009BB2934217D03D4A1388013B9BB21380C8
:1041B00013889BB2002B00D09AE7374B1B889BB229
:1041C000002B0CD0324B1B889BB2002B13D0082243
:1041D000324B1A808CE70822304B1A8088E7022283
:1041E0002F4B1A702A4B1B889BB22B4A138001203D
:1041F000FFF7F8F97CE70122294B1A70244B1B8842
:104200009BB2254A13800220FFF7ECF970E7204BA0
:104210001B889BB2012B0CD01D4B1B889BB2002B23
:1042200003D1204B1B78012B1AD008221B4B1A807C
:104230005EE71C4B1B78002BEED1184A1388013B1C
:104240009BB2138013889BB2002B00D050E7012251
:10425000144B1A700232114B1A80FFF7FBFE47E72E
:104260000E4A1388013B9BB2138013889BB2002B2C
:1042700000D03DE700220B4B1A7039E728010020DF
:1042800009000020A4030020460000204400002074
:104290007400002000040048780000200A0000207C
:1042A0000800002076000020002304480449C25C76
:1042B000D2B2CA540133052BF9D17047C002002095
:1042C0001C030020034B00221A705A709A70DA7097
:1042D0001A7170476C04002010B5002802D0012824
:1042E00023D010BDFFF7EEFFFFF7DEFF00231F4ACC
:1042F00013701F4A13701F4A13701F4A13701F4A0E
:1043000013701F4A13801F4A138001211E4A117027
:104310001E4A53601E4A13880F318B43138080223C
:1043200012019023DB059A62DBE7FFF7CBFF194A06
:10433000138801339BB212490B8013880133134A4F
:1043400053600022144B1A8001320F4B1A70134B2A
:104350001B889BB2032BC4D00022114B1A70114B47
:10436000114A1A80FA2292005A80BAE70800002007
:104370005B0000205A00002060000020590000204F
:104380005C00002054000020020000200C010020EE
:104390008C000020060000204C0000207800002047
:1043A00050000020A0010020204E000010B5012880
:1043B00003D0002800D16DE010BD624B9B7A052B25
:1043C00011D8614A13705F4BDB7A052B0BD8537001
:1043D0005C4B1B7B052B06D893705A4B5B7B052BE4
:1043E00001D8594AD370574A917B584B1980D17BD9
:1043F000574B1980117C574B1980517C564B1970C3
:10440000917C564B1970D17C554B1970137D013B33
:1044100059424B41DBB2527D012A32D0494A927D4A
:10442000012A31D0474AD27D012A30D04D4A13703B
:1044300044498B7E4C4803800488CA7E9200D3B2E4
:10444000234303800B7E4948038004884A7E920000
:1044500010231343DBB223430380FFF76FFB0021DC
:104460000020FEF745FE0020FFF736FF0121012066
:10447000FEF750FD0020FFF735FA01223C4B1A7081
:104480009AE701321343C9E703321343CAE70732FD
:104490001343CBE701210230FEF73CFD294B0122FB
:1044A0009A71294A117899725178D9729178197351
:1044B000D2785A73254A12889A73254A1288DA7379
:1044C000244A12881A74244A12785A74234A127899
:1044D0009A74234A1278DA74224B1B78DB0702D5D0
:1044E0000122184B1A751F4B1B789B0702D501221E
:1044F000144B5A751B4B1B785B0702D50122114BDD
:104500009A75184B1B781B0702D501220D4BDA75E3
:10451000154802880B4903231A408A7602889208BC
:104520001A40CA76114802881A400A760288920810
:1045300013404B761220FFF7D5F901220C4B1A706D
:104540003AE7C046C8020020C00200200400002054
:104550000600002000000020090000204A00002082
:104560006E00002066000020800000200E00002069
:104570005E00002070B50022304B1A70304B1C8852
:10458000304B5B791A000B32944205D000222C4B41
:104590001A80FEF713FD70BD3B2CF7D8E31ADBB28F
:1045A0000B2BF3D1284D22002649280000F0EEFC09
:1045B0002B79022BEAD1244B1C19013C2378022BC6
:1045C000E4D1214B9B79012B03D0022B0DD0C046A7
:1045D000DCE71D4B5B78012B03D00020FFF7E6FEE4
:1045E000D4E70120FFF7E2FED0E7174BD8799622F7
:1045F0005200164BDA6008281DD88300144AD3589D
:104600009F46FFF7D3FAC1E70123124A1370124AFB
:104610001370BBE70123114A13700E4A13700E4A40
:104620001370B3E700230B4A13700C4A1370012276
:10463000094B1A70AAE7C046A8E7C0465E000020F2
:104640006C00002058030020C80200200C0100204C
:10465000F05400086F00002070000020710000205E
:1046600010B5154B1B78012B04D0144B1B78012B74
:104670000DD010BD124B9B8A9BB2002BF5D10024AC
:104680000D4B1C70FFF776FF0E4B1C80F1E70022EC
:104690000A4B1A700132084B1A700B4B1988013102
:1046A00089B219802732064B9A82084BC918273ADB
:1046B0000748FDF71FFEDCE76A00002069000020C4
:1046C00028010020520000206C0000205803002028
:1046D0001C02002010B5254B5B899BB2002B09D131
:1046E0000A22224B5A81224B1B78DBB2012B02D0CB
:1046F000022B0ED010BD1F4B1B889BB2002B03D189
:104700000020FFF7E9FDF5E700210020FEF7F0FCAF
:10471000F6E70022164B1A7000231749174C0800C1
:1047200002E00133052B06D0CA5C052AF9D0E25C11
:10473000D2B2C254F5E7124B1B889BB2022B0BD0AE
:104740000F4B1B889BB2032B06D00120FFF7C4FD43
:1047500001220C4B1A70CDE7FEF7C4FE084B1B88F4
:104760009BB2032BF1D1FEF79FFEEEE7280100205C
:10477000080000204C0000201C030020C002002084
:10478000780000205B0000201C4B1B889BB2002B94
:1047900016D002221A4B1A701A4A1388013B9BB298
:1047A000138013889BB2002B1CD10222154B1A8058
:1047B0009022D205516980235B004B40536111E088
:1047C000114B1B889BB2002B0DD101330C4A137087
:1047D000802149009022D20591610C4A1370022277
:1047E000084B1A8070470023054A13708021490046
:1047F0009022D2059162054A1370F0E74C00002028
:10480000840000200C0000208800002067000020A9
:1048100010B510219020C005FCF7F8FA00286CD1E3
:104820005A4A138801218B43138020219020C00510
:10483000FCF7ECFA002866D1544A138802218B4316
:10484000138040219020C005FCF7E0FA002860D1D9
:104850004E4A138804218B43138080219020C00589
:10486000FCF7D4FA00285AD1484A138808218B4310
:104870001380474B1B78002B09D0464B1A88434BBB
:104880001B885340DB0750D40722434B1A80404B10
:104890005B78002B09D03F4B1A883C4B1B88534058
:1048A0009B0751D407223C4B5A80394B9B78002BF5
:1048B00009D0384B1A88354B1B8853405B0752D4BC
:1048C0000722354B9A80324BDB78002B5DD0314B81
:1048D0001A882E4B1B8853401B0753D52E4AD3886A
:1048E000013B9BB2D380D3889BB2002B4DD1294A88
:1048F000138808214B40138047E0244A1388012184
:104900000B43138091E7214A138802210B43138044
:1049100097E71E4A138804210B4313809DE71B4A27
:10492000138808210B431380A3E71B4A1388013B1C
:104930009BB2138013889BB2002BA8D1154A138811
:1049400001214B401380A2E7134A5388013B9BB2DD
:10495000538053889BB2002BA7D10E4A13880221A3
:104960004B401380A1E70C4A9388013B9BB2938094
:1049700093889BB2002BA6D1064A138804214B4092
:104980001380A0E70722044BDA8010BD82000020CC
:10499000C0020020860000209803002010B5084BBC
:1049A0009B899BB2002B00D010BD2822044B9A811A
:1049B000FFF72EFFFFF70EFBFFF7E6FEF4E7C0461A
:1049C0002801002010B5FFF779FBFFF793F9FEF7F8
:1049D000CFFDFFF77FFEFFF7E1FFFFF763F9FFF77A
:1049E000BBF8FEF739FEFEF78FFD10BD00B595B0A0
:1049F00012230893113B0B930D930F330C930E93DB
:104A00000E3B109300231193A02292031292139352
:104A100008A8FDF783F8002828D107230493053B55
:104A20000593002306930793012104A8FDF7F0FAEC
:104A300000281CD101230093002302936846FDF750
:104A4000B3FB002814D1FDF799FBFA218900FBF78D
:104A50005BFBFBF789FE0420FBF7A2FE002200218E
:104A600001204042FBF742FE15B000BDFEE7FEE725
:104A7000FEE700000122014B1A7070476900002018
:104A80000122034B1A700932024B5A837047C04609
:104A90007A00002028010020C0460122014B1A7034
:104AA000C046704763000020C0460122014B1A70C7
:104AB000C04670476200002010B5C046C04604489A
:104AC000FCF7D3FF062801D0C04610BDC046FBE767
:104AD0004C010020FEE7000010B5124BFA229200B4
:104AE0001A800A221A8300245C8333320E4B1A6127
:104AF0000E4B363A1A805A809A80DA801A810C4B13
:104B0000063A1A7001325A7001329A70DA70002235
:104B10001A71FFF7D7FB074B1C805C80FEF7BCF8CF
:104B200010BDC046280100200C0100209803002081
:104B3000C0020020A001002010B50D4B1B78012BF6
:104B400000D010BD00220A4B1A700023094804004F
:104B500002E001330F2BF4D05A00125A92B2002A0D
:104B6000F7D059000A5B013A92B20A53F1E7C04606
:104B70007B0000202801002010B588B02E4BDB6997
:104B80000693069B01330693C0462C4B1B68DA69DB
:104B9000920600D5C046C04620221A62C046DA6995
:104BA000920700D5C046C04602221A62C046DA69A2
:104BB000D20700D5C046C04601221A62C046DA6953
:104BC000520700D5C046C04604221A62C046DA69C0
:104BD000120700D5C046C04608221A62C046C04629
:104BE00038321A62C0461A62C046303A1A62C0466B
:104BF000802292021A62C046802212011A62C046C6
:104C0000C046802212031A620B4B9B8C9BB21E245F
:104C10006C442380C0460A23022201A90748FDF7FD
:104C200093FE80B22080C046238801339BB223804C
:104C3000C04608B010BDC046003801401C0200202C
:104C400010B50C4B5B8B9BB2002B03D10A4B1B782E
:104C5000012B00D010BD0022074B1A70FFF78CFF0C
:104C6000012206490648FDF745FB0028F2D0C04660
:104C7000F0E7C046280100207A00002058030020F9
:104C80001C02002010B50F4B1B889BB2002B18D1C3
:104C9000FA2292000B4B1A800B4A536940214B4079
:104CA00053610023094C200002E00133052B08D09A
:104CB0009A001259012AF8D999000A58013A0A5063
:104CC000F3E710BD28010020000400480C0100207B
:104CD00010B5012802D007280CD010BD00220A4BC5
:104CE0001A708AB2094B1988094BC9180948FDF78F
:104CF00001FBF2E78AB208490848FCF7CFF900281F
:104D0000EBD0C046FEE7C046690000206C000020E2
:104D1000580300201C020020240300204C01002026
:104D2000F0B589B0FBF78EFAFFF760FE854D6A6932
:104D3000802189020A436A616B690B400193019BE0
:104D40006A698021C9020A436A616B690B40029358
:104D5000029B7D4C002221009020C005FCF75CF8EE
:104D60000022C0217948FCF757F8039401260496E5
:104D700000240594069403A99020C005FBF770FF5A
:104D8000F02303930494059603A99020C005FBF734
:104D900067FF022703970494059603A96B48FBF766
:104DA0005FFF80231B0203930494059703A99020BF
:104DB000C005FBF755FF382303930494059703A917
:104DC0006248FBF74DFFC0230393049605940694B5
:104DD00003A95E48FBF744FF6B6933436B616B6962
:104DE00033400093009B002200210A20FBF77EFC49
:104DF0000A20FBF7AFFC5648564B036096239B01F5
:104E000043608460C46004610C2343618461C461B5
:104E100004624462FDF7B0FC002800D08BE04E48ED
:104E20004E4B03604E4B4360402383603F3BC36067
:104E30000023036143618361C3610362FCF780F86F
:104E4000002879D100214448FCF712FE002874D1D3
:104E500000214148FCF738FE00286FD14148424B01
:104E6000036080231B064360102383600023C3601C
:104E700001220261042141618361C36102624362D4
:104E8000C221FF318162C36203634263FBF75EFAB2
:104E9000002854D10823039380235B010493032348
:104EA000059303A92F48FBF793FB002848D100F096
:104EB0007FF800F07EF8FFF70FFE244B40229A6146
:104EC00040329A619024E40580235B00A362802332
:104ED0005B01A3620223A36280252D01A561E1206D
:104EE0008000FBF7CDF9A562FEF774F800F00EF92B
:104EF0000020FEF7BBFDFFF7D7F93220FBF7C0F922
:104F000001210120FFF7E4FE3220FBF7B9F901226D
:104F1000164B1A70FFF710FEFFF7B4FEFFF752FDB5
:104F2000FFF79EFBFEF71CFDFEF7CCFEFDF728FF0A
:104F3000FFF786FEEEE7FEE7FEE7FEE7FEE7FEE7A9
:104F4000FEE7C046001002400319000000040048BC
:104F50001C020020003801404C0100200054004099
:104F60000E090020A403002000240140610000205D
:104F7000044B02689A4200D070470122024B1A701B
:104F8000FAE7C046003801405800002030B5002A3A
:104F90000DD00023551E03E001339CB2944206D28B
:104FA0000C780470AB42F7DA01310130F4E730BD20
:104FB00070477047022904D00023012905D018004A
:104FC00070474000034BC35AF9E74000024BC35AF5
:104FD000F5E7C0469004002074040020F0B5C646F2
:104FE00000B584B0019000240394FBF70BFD34223C
:104FF000334BDA6033480460334B436001238360F2
:1050000003A9FBF7D1FD002800D0C0462E4A2F4B44
:105010001A602F4B01221A701B78012B1ED1032717
:105020002C4C0025294E0CE0C046284A1368043356
:105030001360274B1B78012B10D1013FFFB2002FCB
:105040000CD022002B0031680220FBF725FD002840
:10505000EAD000231E4A1370C046E6E71E4A1B4BE7
:105060001A6001221A4B1A7000241E000125174FE6
:1050700098460CE0154A136802331360144B1B78F2
:10508000012B15D0C0460134E4B20D2C12D035707E
:1050900001992000FFF78EFF0200002339680120EC
:1050A000FBF7FAFC0028E5D0002342461370E1E745
:1050B000C046E8E7FBF7B8FC04B004BC9046F0BD7E
:1050C0000020024090000020007800089C00002092
:1050D00014000020214365870C78000810B5084AA9
:1050E000084B1A60084A14001A3419000B68188813
:1050F000108002330B600232A242F7D110BDC046CD
:105100000C7800089C00002090040020F0B5C646F2
:1051100000B51B4A1B4B1A601B4B01221A701B78EF
:10512000012B1AD10233174F184E194D0022944605
:105130003C00154A90463A6811683160A94202D095
:105140001149604608700432226042461278012AF2
:1051500003D1013BDBB2002BEDD10B4B1B78002BB5
:1051600007D040220B4B9A61FFF7B8FF04BC904672
:10517000F0BD0120FFF732FF4022064B9A62F3E7B1
:10518000007800089C00002014000020100000207F
:10519000214365870004004800B583B0124A916935
:1051A000012319439161926913400193019B0022ED
:1051B000002105204042FBF799FA0022002102203D
:1051C0004042FBF793FA0022002101204042FBF706
:1051D0008DFA002200210420FBF788FA0420FBF757
:1051E000B9FA03B000BDC0460010024000B587B058
:1051F0000D4B02689A4201D007B000BD0B4A91697D
:105200008020800001439161936903400093009BDB
:1052100001230193023302930023039301A904485D
:10522000FBF71EFDE8E7C0460024014000100240E5
:105230000004004800B587B0144B02689A4201D0C0
:1052400007B000BDC023DB00019312230293113B82
:105250000393023304930133059301A99020C00501
:10526000FBF7FEFC0A4AD169802080030143D1612B
:10527000D36903400093009B002200211720FBF715
:1052800035FA1720FBF766FADAE7C046005400400B
:105290000010024030B587B00400204B02689A42EB
:1052A00001D007B030BD1E4A91698020C001014382
:1052B0009161936903400093009B0C2301930A3B87
:1052C00002930025039501330493023B059301A942
:1052D0009020C005FBF7C4FC1248134B0360102359
:1052E000436085607033C360056145618561C56158
:1052F000FBF76CFA00280BD10A4B23665C62002294
:1053000000211B20FBF7F2F91B20FBF723FAC8E76B
:10531000E2210648FFF7DEFBEEE7C0460038014019
:1053200000100240D80100201C0002401455000863
:105330007047C046C046C046C046C046F9E7704701
:105340007047000010B50122034B1A70FAF78AFF6C
:10535000FBF737FA10BDC0467B00002010B5044CA7
:105360002000FBF7CDFE2000FCF72BFB10BDC04654
:105370004C01002010B50248FBF7D0FA10BDC04622
:10538000D801002010B50248FDF7F2FB10BDC04661
:105390001C020020114B1A6801210A431A605A6846
:1053A0000F4802405A601A680E4802401A601A6894
:1053B0000D4802401A605A680C4802405A60DA6A86
:1053C0000F208243DA621A6B094802401A635A6B53
:1053D0008A435A6300229A607047C0460010024018
:1053E0000CB8FF08FFFFF6FEFFFFFBFFFFFFC0FF4B
:1053F000ECFEFFFF0D4885460D480E490E4A00237E
:1054000002E0D458C4500433C4188C42F9D30B4A78
:105410000B4C002301E013600432A242FBD3FFF7E0
:10542000B9FF00F011F8FFF77BFCFEE70010002049
:10543000000000201C000020505500082000002023
:10544000AC040020FEE7000070B500260C4D0D4CAA
:10545000641BA410A64209D1002600F019F80A4DD9
:105460000A4C641BA410A64205D170BDB300EB58D2
:1054700098470136EEE7B300EB5898470136F2E75C
:105480004855000848550008485500084C55000884
:10549000F8B5C046F8BC08BC9E467047F8B5C04693
:0854A000F8BC08BC9E467047F1
:1054A80002030405060708090A0B0C0D0E0F10105D
:1054B8000102030405060708090A0B0C0D0E0F105C
:1054C800703F0008723F00080C3F0008863F000844
:1054D8002A3F0008723F0008483F00085C3F000868
:1054E800723F00088A3F0008364600080246000856
:1054F8000246000802460008024600083646000830
:105508000846000824460008144600082E2E5C535E
:1055180072635C73746D3332663078785F68616C7F
:105528005F6D73702E630000000000000000000033
:105538000102030406070809000000000102030431
:04554800E90000086E
:04554C00C100000892
:10555000B400010019004600030208000200100018
:0C556000CDAB10320100000000127A00F8
:04000005080053F5A7
:00000001FF
